{
  "_format": "hh-sol-artifact-1",
  "contractName": "HSCVestingWallet",
  "sourceName": "contracts/utility/VestingWallet.sol",
  "abi": [
    {
      "inputs": [
        {
          "internalType": "address",
          "name": "tokenAddress",
          "type": "address"
        },
        {
          "internalType": "address",
          "name": "beneficiaryAddress",
          "type": "address"
        },
        {
          "internalType": "uint64",
          "name": "startTimestamp",
          "type": "uint64"
        },
        {
          "internalType": "uint64",
          "name": "durationSeconds",
          "type": "uint64"
        }
      ],
      "stateMutability": "nonpayable",
      "type": "constructor"
    },
    {
      "anonymous": false,
      "inputs": [
        {
          "indexed": true,
          "internalType": "address",
          "name": "token",
          "type": "address"
        },
        {
          "indexed": false,
          "internalType": "uint256",
          "name": "amount",
          "type": "uint256"
        }
      ],
      "name": "ERC20Released",
      "type": "event"
    },
    {
      "anonymous": false,
      "inputs": [
        {
          "indexed": false,
          "internalType": "uint256",
          "name": "amount",
          "type": "uint256"
        }
      ],
      "name": "EtherReleased",
      "type": "event"
    },
    {
      "inputs": [],
      "name": "beneficiary",
      "outputs": [
        {
          "internalType": "address",
          "name": "",
          "type": "address"
        }
      ],
      "stateMutability": "view",
      "type": "function"
    },
    {
      "inputs": [],
      "name": "duration",
      "outputs": [
        {
          "internalType": "uint256",
          "name": "",
          "type": "uint256"
        }
      ],
      "stateMutability": "view",
      "type": "function"
    },
    {
      "inputs": [],
      "name": "hscToken",
      "outputs": [
        {
          "internalType": "contract IERC20",
          "name": "",
          "type": "address"
        }
      ],
      "stateMutability": "view",
      "type": "function"
    },
    {
      "inputs": [
        {
          "internalType": "address",
          "name": "token",
          "type": "address"
        }
      ],
      "name": "releasable",
      "outputs": [
        {
          "internalType": "uint256",
          "name": "",
          "type": "uint256"
        }
      ],
      "stateMutability": "view",
      "type": "function"
    },
    {
      "inputs": [],
      "name": "releasable",
      "outputs": [
        {
          "internalType": "uint256",
          "name": "",
          "type": "uint256"
        }
      ],
      "stateMutability": "view",
      "type": "function"
    },
    {
      "inputs": [
        {
          "internalType": "address",
          "name": "token",
          "type": "address"
        }
      ],
      "name": "release",
      "outputs": [],
      "stateMutability": "nonpayable",
      "type": "function"
    },
    {
      "inputs": [],
      "name": "release",
      "outputs": [],
      "stateMutability": "nonpayable",
      "type": "function"
    },
    {
      "inputs": [],
      "name": "released",
      "outputs": [
        {
          "internalType": "uint256",
          "name": "",
          "type": "uint256"
        }
      ],
      "stateMutability": "view",
      "type": "function"
    },
    {
      "inputs": [
        {
          "internalType": "address",
          "name": "token",
          "type": "address"
        }
      ],
      "name": "released",
      "outputs": [
        {
          "internalType": "uint256",
          "name": "",
          "type": "uint256"
        }
      ],
      "stateMutability": "view",
      "type": "function"
    },
    {
      "inputs": [],
      "name": "start",
      "outputs": [
        {
          "internalType": "uint256",
          "name": "",
          "type": "uint256"
        }
      ],
      "stateMutability": "view",
      "type": "function"
    },
    {
      "inputs": [
        {
          "internalType": "uint64",
          "name": "timestamp",
          "type": "uint64"
        }
      ],
      "name": "vestedAmount",
      "outputs": [
        {
          "internalType": "uint256",
          "name": "",
          "type": "uint256"
        }
      ],
      "stateMutability": "view",
      "type": "function"
    },
    {
      "inputs": [
        {
          "internalType": "address",
          "name": "token",
          "type": "address"
        },
        {
          "internalType": "uint64",
          "name": "timestamp",
          "type": "uint64"
        }
      ],
      "name": "vestedAmount",
      "outputs": [
        {
          "internalType": "uint256",
          "name": "",
          "type": "uint256"
        }
      ],
      "stateMutability": "view",
      "type": "function"
    },
    {
      "stateMutability": "payable",
      "type": "receive"
    }
  ],
  "bytecode": "0x61010060405234801561001157600080fd5b50604051610f81380380610f818339810160408190526100309161016b565b8282826001600160a01b0383166100a15760405162461bcd60e51b815260206004820152602a60248201527f56657374696e6757616c6c65743a2062656e6566696369617279206973207a65604482015269726f206164647265737360b01b60648201526084015b60405180910390fd5b6001600160a01b039092166080526001600160401b0390811660a05290811660c05281166101245760405162461bcd60e51b815260206004820152602a60248201527f4475726174696f6e207365636f6e6473206d7573742062652067726561746572604482015269207468616e207a65726f60b01b6064820152608401610098565b5050506001600160a01b031660e0526101bf565b80516001600160a01b038116811461014f57600080fd5b919050565b80516001600160401b038116811461014f57600080fd5b6000806000806080858703121561018157600080fd5b61018a85610138565b935061019860208601610138565b92506101a660408601610154565b91506101b460608601610154565b905092959194509250565b60805160a05160c05160e051610d5261022f600039600081816101a2015281816103fc0152818161043001526104b701526000818160f90152818161065301526106a8015260006105ef01526000818161015801528181610333015281816104de01526107b90152610d526000f3fe6080604052600436106100ab5760003560e01c806386d1a69f1161006457806386d1a69f146101e457806396132521146101f95780639852595c1461020e578063a3f8eace14610244578063be9a655514610264578063fbccedae1461027957600080fd5b80630a17b06b146100b75780630fb5a6b4146100ea578063191655871461012757806338af3eed146101495780636fbd7ac414610190578063810ec23b146101c457600080fd5b366100b257005b600080fd5b3480156100c357600080fd5b506100d76100d2366004610b79565b61028e565b6040519081526020015b60405180910390f35b3480156100f657600080fd5b507f000000000000000000000000000000000000000000000000000000000000000067ffffffffffffffff166100d7565b34801561013357600080fd5b50610147610142366004610bab565b6102b2565b005b34801561015557600080fd5b507f00000000000000000000000000000000000000000000000000000000000000005b6040516001600160a01b0390911681526020016100e1565b34801561019c57600080fd5b506101787f000000000000000000000000000000000000000000000000000000000000000081565b3480156101d057600080fd5b506100d76101df366004610bc6565b61035c565b3480156101f057600080fd5b506101476103f2565b34801561020557600080fd5b506000546100d7565b34801561021a57600080fd5b506100d7610229366004610bab565b6001600160a01b031660009081526001602052604090205490565b34801561025057600080fd5b506100d761025f366004610bab565b6105b7565b34801561027057600080fd5b506100d76105e4565b34801561028557600080fd5b506100d7610612565b60006102ac61029c60005490565b6102a69047610c0f565b8361062e565b92915050565b60006102bd826105b7565b6001600160a01b0383166000908152600160205260408120805492935083929091906102ea908490610c0f565b90915550506040518181526001600160a01b038316907fc0e523490dd523c33b1878c9eb14ff46991e3f5b2cd33710918618f2a39cba1b9060200160405180910390a2610358827f000000000000000000000000000000000000000000000000000000000000000083610708565b5050565b6001600160a01b0382166000908152600160205260408120546103eb906040516370a0823160e01b81523060048201526001600160a01b038616906370a0823190602401602060405180830381865afa1580156103bd573d6000803e3d6000fd5b505050506040513d601f19601f820116820180604052508101906103e19190610c22565b6102a69190610c0f565b9392505050565b6001600160a01b037f0000000000000000000000000000000000000000000000000000000000000000166000908152600160205260408120546104557f00000000000000000000000000000000000000000000000000000000000000004261035c565b61045f9190610c3b565b9050600081116104ad5760405162461bcd60e51b81526020600482015260146024820152734e6f20746f6b656e7320746f2072656c6561736560601b60448201526064015b60405180910390fd5b6001600160a01b037f00000000000000000000000000000000000000000000000000000000000000001663a9059cbb7f00000000000000000000000000000000000000000000000000000000000000006040516001600160e01b031960e084901b1681526001600160a01b039091166004820152602481018490526044016020604051808303816000875af115801561054a573d6000803e3d6000fd5b505050506040513d601f19601f8201168201806040525081019061056e9190610c4e565b6105ac5760405162461bcd60e51b815260206004820152600f60248201526e151c985b9cd9995c8819985a5b1959608a1b60448201526064016104a4565b6105b461075f565b50565b6001600160a01b0381166000908152600160205260408120546105da834261035c565b6102ac9190610c3b565b67ffffffffffffffff7f00000000000000000000000000000000000000000000000000000000000000001690565b6000805461061f4261028e565b6106299190610c3b565b905090565b60006106386105e4565b8267ffffffffffffffff161015610651575060006102ac565b7f000000000000000000000000000000000000000000000000000000000000000067ffffffffffffffff166106846105e4565b61068e9190610c0f565b8267ffffffffffffffff1611156106a65750816102ac565b7f000000000000000000000000000000000000000000000000000000000000000067ffffffffffffffff166106d96105e4565b6106ed9067ffffffffffffffff8516610c3b565b6106f79085610c70565b6107019190610c87565b90506102ac565b604080516001600160a01b038416602482015260448082018490528251808303909101815260649091019091526020810180516001600160e01b031663a9059cbb60e01b17905261075a9084906107de565b505050565b6000610769610612565b90508060008082825461077c9190610c0f565b90915550506040518181527fda9d4e5f101b8b9b1c5b76d0c5a9f7923571acfc02376aa076b75a8c080c956b9060200160405180910390a16105b47f0000000000000000000000000000000000000000000000000000000000000000826108b3565b6000610833826040518060400160405280602081526020017f5361666545524332303a206c6f772d6c6576656c2063616c6c206661696c6564815250856001600160a01b03166109cc9092919063ffffffff16565b90508051600014806108545750808060200190518101906108549190610c4e565b61075a5760405162461bcd60e51b815260206004820152602a60248201527f5361666545524332303a204552433230206f7065726174696f6e20646964206e6044820152691bdd081cdd58d8d9595960b21b60648201526084016104a4565b804710156109035760405162461bcd60e51b815260206004820152601d60248201527f416464726573733a20696e73756666696369656e742062616c616e636500000060448201526064016104a4565b6000826001600160a01b03168260405160006040518083038185875af1925050503d8060008114610950576040519150601f19603f3d011682016040523d82523d6000602084013e610955565b606091505b505090508061075a5760405162461bcd60e51b815260206004820152603a60248201527f416464726573733a20756e61626c6520746f2073656e642076616c75652c207260448201527f6563697069656e74206d6179206861766520726576657274656400000000000060648201526084016104a4565b60606109db84846000856109e3565b949350505050565b606082471015610a445760405162461bcd60e51b815260206004820152602660248201527f416464726573733a20696e73756666696369656e742062616c616e636520666f6044820152651c8818d85b1b60d21b60648201526084016104a4565b600080866001600160a01b03168587604051610a609190610ccd565b60006040518083038185875af1925050503d8060008114610a9d576040519150601f19603f3d011682016040523d82523d6000602084013e610aa2565b606091505b5091509150610ab387838387610abe565b979650505050505050565b60608315610b2d578251600003610b26576001600160a01b0385163b610b265760405162461bcd60e51b815260206004820152601d60248201527f416464726573733a2063616c6c20746f206e6f6e2d636f6e747261637400000060448201526064016104a4565b50816109db565b6109db8383815115610b425781518083602001fd5b8060405162461bcd60e51b81526004016104a49190610ce9565b803567ffffffffffffffff81168114610b7457600080fd5b919050565b600060208284031215610b8b57600080fd5b6103eb82610b5c565b80356001600160a01b0381168114610b7457600080fd5b600060208284031215610bbd57600080fd5b6103eb82610b94565b60008060408385031215610bd957600080fd5b610be283610b94565b9150610bf060208401610b5c565b90509250929050565b634e487b7160e01b600052601160045260246000fd5b808201808211156102ac576102ac610bf9565b600060208284031215610c3457600080fd5b5051919050565b818103818111156102ac576102ac610bf9565b600060208284031215610c6057600080fd5b815180151581146103eb57600080fd5b80820281158282048414176102ac576102ac610bf9565b600082610ca457634e487b7160e01b600052601260045260246000fd5b500490565b60005b83811015610cc4578181015183820152602001610cac565b50506000910152565b60008251610cdf818460208701610ca9565b9190910192915050565b6020815260008251806020840152610d08816040850160208701610ca9565b601f01601f1916919091016040019291505056fea26469706673582212205e331921522536e99a07662c57db4aefa86378c6d793fb85389dc1955010c80964736f6c634300081c0033",
  "linkReferences": {},
  "deployedLinkReferences": {}
}