{
  "_format": "hh-sol-artifact-1",
  "contractName": "SneakerNFT",
  "sourceName": "contracts/nft/SneakerNFT.sol",
  "abi": [
    {
      "inputs": [],
      "stateMutability": "nonpayable",
      "type": "constructor"
    },
    {
      "anonymous": false,
      "inputs": [
        {
          "indexed": true,
          "internalType": "address",
          "name": "owner",
          "type": "address"
        },
        {
          "indexed": true,
          "internalType": "address",
          "name": "approved",
          "type": "address"
        },
        {
          "indexed": true,
          "internalType": "uint256",
          "name": "tokenId",
          "type": "uint256"
        }
      ],
      "name": "Approval",
      "type": "event"
    },
    {
      "anonymous": false,
      "inputs": [
        {
          "indexed": true,
          "internalType": "address",
          "name": "owner",
          "type": "address"
        },
        {
          "indexed": true,
          "internalType": "address",
          "name": "operator",
          "type": "address"
        },
        {
          "indexed": false,
          "internalType": "bool",
          "name": "approved",
          "type": "bool"
        }
      ],
      "name": "ApprovalForAll",
      "type": "event"
    },
    {
      "anonymous": false,
      "inputs": [
        {
          "indexed": true,
          "internalType": "address",
          "name": "previousOwner",
          "type": "address"
        },
        {
          "indexed": true,
          "internalType": "address",
          "name": "newOwner",
          "type": "address"
        }
      ],
      "name": "OwnershipTransferred",
      "type": "event"
    },
    {
      "anonymous": false,
      "inputs": [
        {
          "indexed": true,
          "internalType": "address",
          "name": "from",
          "type": "address"
        },
        {
          "indexed": true,
          "internalType": "address",
          "name": "to",
          "type": "address"
        },
        {
          "indexed": true,
          "internalType": "uint256",
          "name": "tokenId",
          "type": "uint256"
        }
      ],
      "name": "Transfer",
      "type": "event"
    },
    {
      "inputs": [],
      "name": "DURABILITY_MANAGER_ROLE",
      "outputs": [
        {
          "internalType": "bytes32",
          "name": "",
          "type": "bytes32"
        }
      ],
      "stateMutability": "view",
      "type": "function"
    },
    {
      "inputs": [],
      "name": "MAX_DURABILITY",
      "outputs": [
        {
          "internalType": "uint256",
          "name": "",
          "type": "uint256"
        }
      ],
      "stateMutability": "view",
      "type": "function"
    },
    {
      "inputs": [],
      "name": "MAX_MINT_COUNT",
      "outputs": [
        {
          "internalType": "uint256",
          "name": "",
          "type": "uint256"
        }
      ],
      "stateMutability": "view",
      "type": "function"
    },
    {
      "inputs": [],
      "name": "MINT_COOLDOWN",
      "outputs": [
        {
          "internalType": "uint256",
          "name": "",
          "type": "uint256"
        }
      ],
      "stateMutability": "view",
      "type": "function"
    },
    {
      "inputs": [
        {
          "internalType": "address",
          "name": "to",
          "type": "address"
        },
        {
          "internalType": "uint256",
          "name": "tokenId",
          "type": "uint256"
        }
      ],
      "name": "approve",
      "outputs": [],
      "stateMutability": "nonpayable",
      "type": "function"
    },
    {
      "inputs": [
        {
          "internalType": "address",
          "name": "owner",
          "type": "address"
        }
      ],
      "name": "balanceOf",
      "outputs": [
        {
          "internalType": "uint256",
          "name": "",
          "type": "uint256"
        }
      ],
      "stateMutability": "view",
      "type": "function"
    },
    {
      "inputs": [
        {
          "internalType": "uint256",
          "name": "tokenId",
          "type": "uint256"
        }
      ],
      "name": "canMint",
      "outputs": [
        {
          "internalType": "bool",
          "name": "",
          "type": "bool"
        }
      ],
      "stateMutability": "view",
      "type": "function"
    },
    {
      "inputs": [
        {
          "internalType": "address",
          "name": "",
          "type": "address"
        }
      ],
      "name": "durabilityManagers",
      "outputs": [
        {
          "internalType": "bool",
          "name": "",
          "type": "bool"
        }
      ],
      "stateMutability": "view",
      "type": "function"
    },
    {
      "inputs": [
        {
          "internalType": "uint256",
          "name": "tokenId",
          "type": "uint256"
        }
      ],
      "name": "getApproved",
      "outputs": [
        {
          "internalType": "address",
          "name": "",
          "type": "address"
        }
      ],
      "stateMutability": "view",
      "type": "function"
    },
    {
      "inputs": [
        {
          "internalType": "address",
          "name": "owner",
          "type": "address"
        },
        {
          "internalType": "address",
          "name": "operator",
          "type": "address"
        }
      ],
      "name": "isApprovedForAll",
      "outputs": [
        {
          "internalType": "bool",
          "name": "",
          "type": "bool"
        }
      ],
      "stateMutability": "view",
      "type": "function"
    },
    {
      "inputs": [
        {
          "internalType": "address",
          "name": "to",
          "type": "address"
        },
        {
          "internalType": "enum Quality",
          "name": "quality",
          "type": "uint8"
        }
      ],
      "name": "mint",
      "outputs": [
        {
          "internalType": "uint256",
          "name": "",
          "type": "uint256"
        }
      ],
      "stateMutability": "nonpayable",
      "type": "function"
    },
    {
      "inputs": [],
      "name": "name",
      "outputs": [
        {
          "internalType": "string",
          "name": "",
          "type": "string"
        }
      ],
      "stateMutability": "view",
      "type": "function"
    },
    {
      "inputs": [],
      "name": "owner",
      "outputs": [
        {
          "internalType": "address",
          "name": "",
          "type": "address"
        }
      ],
      "stateMutability": "view",
      "type": "function"
    },
    {
      "inputs": [
        {
          "internalType": "uint256",
          "name": "tokenId",
          "type": "uint256"
        }
      ],
      "name": "ownerOf",
      "outputs": [
        {
          "internalType": "address",
          "name": "",
          "type": "address"
        }
      ],
      "stateMutability": "view",
      "type": "function"
    },
    {
      "inputs": [],
      "name": "renounceOwnership",
      "outputs": [],
      "stateMutability": "nonpayable",
      "type": "function"
    },
    {
      "inputs": [
        {
          "internalType": "address",
          "name": "from",
          "type": "address"
        },
        {
          "internalType": "address",
          "name": "to",
          "type": "address"
        },
        {
          "internalType": "uint256",
          "name": "tokenId",
          "type": "uint256"
        }
      ],
      "name": "safeTransferFrom",
      "outputs": [],
      "stateMutability": "nonpayable",
      "type": "function"
    },
    {
      "inputs": [
        {
          "internalType": "address",
          "name": "from",
          "type": "address"
        },
        {
          "internalType": "address",
          "name": "to",
          "type": "address"
        },
        {
          "internalType": "uint256",
          "name": "tokenId",
          "type": "uint256"
        },
        {
          "internalType": "bytes",
          "name": "data",
          "type": "bytes"
        }
      ],
      "name": "safeTransferFrom",
      "outputs": [],
      "stateMutability": "nonpayable",
      "type": "function"
    },
    {
      "inputs": [
        {
          "internalType": "address",
          "name": "operator",
          "type": "address"
        },
        {
          "internalType": "bool",
          "name": "approved",
          "type": "bool"
        }
      ],
      "name": "setApprovalForAll",
      "outputs": [],
      "stateMutability": "nonpayable",
      "type": "function"
    },
    {
      "inputs": [
        {
          "internalType": "address",
          "name": "manager",
          "type": "address"
        },
        {
          "internalType": "bool",
          "name": "status",
          "type": "bool"
        }
      ],
      "name": "setDurabilityManager",
      "outputs": [],
      "stateMutability": "nonpayable",
      "type": "function"
    },
    {
      "inputs": [
        {
          "internalType": "uint256",
          "name": "",
          "type": "uint256"
        }
      ],
      "name": "sneakers",
      "outputs": [
        {
          "internalType": "enum Quality",
          "name": "quality",
          "type": "uint8"
        },
        {
          "internalType": "uint256",
          "name": "mintCount",
          "type": "uint256"
        },
        {
          "internalType": "uint256",
          "name": "lastMintTime",
          "type": "uint256"
        },
        {
          "internalType": "uint256",
          "name": "durability",
          "type": "uint256"
        }
      ],
      "stateMutability": "view",
      "type": "function"
    },
    {
      "inputs": [
        {
          "internalType": "bytes4",
          "name": "interfaceId",
          "type": "bytes4"
        }
      ],
      "name": "supportsInterface",
      "outputs": [
        {
          "internalType": "bool",
          "name": "",
          "type": "bool"
        }
      ],
      "stateMutability": "view",
      "type": "function"
    },
    {
      "inputs": [],
      "name": "symbol",
      "outputs": [
        {
          "internalType": "string",
          "name": "",
          "type": "string"
        }
      ],
      "stateMutability": "view",
      "type": "function"
    },
    {
      "inputs": [
        {
          "internalType": "uint256",
          "name": "tokenId",
          "type": "uint256"
        }
      ],
      "name": "tokenURI",
      "outputs": [
        {
          "internalType": "string",
          "name": "",
          "type": "string"
        }
      ],
      "stateMutability": "view",
      "type": "function"
    },
    {
      "inputs": [
        {
          "internalType": "address",
          "name": "from",
          "type": "address"
        },
        {
          "internalType": "address",
          "name": "to",
          "type": "address"
        },
        {
          "internalType": "uint256",
          "name": "tokenId",
          "type": "uint256"
        }
      ],
      "name": "transferFrom",
      "outputs": [],
      "stateMutability": "nonpayable",
      "type": "function"
    },
    {
      "inputs": [
        {
          "internalType": "address",
          "name": "newOwner",
          "type": "address"
        }
      ],
      "name": "transferOwnership",
      "outputs": [],
      "stateMutability": "nonpayable",
      "type": "function"
    },
    {
      "inputs": [
        {
          "internalType": "uint256",
          "name": "tokenId",
          "type": "uint256"
        }
      ],
      "name": "updateAfterMint",
      "outputs": [],
      "stateMutability": "nonpayable",
      "type": "function"
    },
    {
      "inputs": [
        {
          "internalType": "uint256",
          "name": "tokenId",
          "type": "uint256"
        },
        {
          "internalType": "uint256",
          "name": "newDurability",
          "type": "uint256"
        }
      ],
      "name": "updateDurability",
      "outputs": [],
      "stateMutability": "nonpayable",
      "type": "function"
    }
  ],
  "bytecode": "0x608060405234801561001057600080fd5b50604051806040016040528060128152602001712432b0b63a3429ba32b81029b732b0b5b2b960711b8152506040518060400160405280600481526020016348534e5360e01b81525081600090816100689190610188565b5060016100758282610188565b50505061008e61008961009360201b60201c565b610097565b610246565b3390565b600680546001600160a01b038381166001600160a01b0319831681179093556040519116919082907f8be0079c531659141344cd1fd0a4f28419497f9722a3daafe3b4186f6b6457e090600090a35050565b634e487b7160e01b600052604160045260246000fd5b600181811c9082168061011357607f821691505b60208210810361013357634e487b7160e01b600052602260045260246000fd5b50919050565b601f82111561018357806000526020600020601f840160051c810160208510156101605750805b601f840160051c820191505b81811015610180576000815560010161016c565b50505b505050565b81516001600160401b038111156101a1576101a16100e9565b6101b5816101af84546100ff565b84610139565b6020601f8211600181146101e957600083156101d15750848201515b600019600385901b1c1916600184901b178455610180565b600084815260208120601f198516915b8281101561021957878501518255602094850194600190920191016101f9565b50848210156102375786840151600019600387901b60f8161c191681555b50505050600190811b01905550565b611a7b806102556000396000f3fe608060405234801561001057600080fd5b50600436106101a95760003560e01c8063715018a6116100f9578063cdf6530611610097578063ec6c570a11610071578063ec6c570a14610402578063f2fde38b1461040a578063f7ee7a431461041d578063fea609d21461042757600080fd5b8063cdf65306146103ab578063d738d233146103b3578063e985e9c5146103c657600080fd5b8063a22cb465116100d3578063a22cb46514610329578063b88d4fde1461033c578063bd2e065c1461034f578063c87b56dd1461039857600080fd5b8063715018a6146103085780638da5cb5b1461031057806395d89b411461032157600080fd5b806342842e0e116101665780636352211e116101405780636352211e1461029a578063691562a0146102ad5780636c52a739146102ce57806370a08231146102f557600080fd5b806342842e0e146102515780635dd871a314610264578063629d94291461027757600080fd5b806301ffc9a7146101ae57806306fdde03146101d6578063081812fc146101eb578063095ea7b31461021657806323b872dd1461022b5780632e058c641461023e575b600080fd5b6101c16101bc366004611516565b61043a565b60405190151581526020015b60405180910390f35b6101de61048c565b6040516101cd9190611583565b6101fe6101f9366004611596565b61051e565b6040516001600160a01b0390911681526020016101cd565b6102296102243660046115cb565b610545565b005b6102296102393660046115f5565b61065f565b61022961024c366004611596565b610690565b61022961025f3660046115f5565b6107b8565b6101c1610272366004611596565b6107d3565b6101c1610285366004611632565b60076020526000908152604090205460ff1681565b6101fe6102a8366004611596565b610879565b6102c06102bb36600461164d565b6108d9565b6040519081526020016101cd565b6102c07f272c40d1a9c9461880e75de2be6f770a8ea627dce2d5791b503fc3db368773bf81565b6102c0610303366004611632565b610997565b610229610a1d565b6006546001600160a01b03166101fe565b6101de610a31565b610229610337366004611688565b610a40565b61022961034a3660046116cf565b610a4b565b61038861035d366004611596565b600860205260009081526040902080546001820154600283015460039093015460ff90921692909184565b6040516101cd94939291906117c9565b6101de6103a6366004611596565b610a83565b6102c0600781565b6102296103c1366004611688565b610af6565b6101c16103d4366004611807565b6001600160a01b03918216600090815260056020908152604080832093909416825291909152205460ff1690565b6102c0606481565b610229610418366004611632565b610b29565b6102c06202a30081565b61022961043536600461183a565b610ba2565b60006001600160e01b031982166380ac58cd60e01b148061046b57506001600160e01b03198216635b5e139f60e01b145b8061048657506301ffc9a760e01b6001600160e01b03198316145b92915050565b60606000805461049b9061185c565b80601f01602080910402602001604051908101604052809291908181526020018280546104c79061185c565b80156105145780601f106104e957610100808354040283529160200191610514565b820191906000526020600020905b8154815290600101906020018083116104f757829003601f168201915b5050505050905090565b600061052982610cac565b506000908152600460205260409020546001600160a01b031690565b600061055082610879565b9050806001600160a01b0316836001600160a01b0316036105c25760405162461bcd60e51b815260206004820152602160248201527f4552433732313a20617070726f76616c20746f2063757272656e74206f776e656044820152603960f91b60648201526084015b60405180910390fd5b336001600160a01b03821614806105de57506105de81336103d4565b6106505760405162461bcd60e51b815260206004820152603d60248201527f4552433732313a20617070726f76652063616c6c6572206973206e6f7420746f60448201527f6b656e206f776e6572206f7220617070726f76656420666f7220616c6c00000060648201526084016105b9565b61065a8383610d0b565b505050565b6106693382610d79565b6106855760405162461bcd60e51b81526004016105b990611896565b61065a838383610df8565b610698610f5c565b6000818152600260205260409020546001600160a01b03166106f35760405162461bcd60e51b8152602060048201526014602482015273151bdad95b88191bd95cc81b9bdd08195e1a5cdd60621b60448201526064016105b9565b600081815260086020526040902060018101546007116107495760405162461bcd60e51b815260206004820152601160248201527013585e081b5a5b9d1cc81c995858da1959607a1b60448201526064016105b9565b60018101805490600061075b836118f9565b90915550504260028201556001810154600710156107b45760405162461bcd60e51b8152602060048201526016602482015275115e18d959591cc81b585e081b5a5b9d0818dbdd5b9d60521b60448201526064016105b9565b5050565b61065a83838360405180602001604052806000815250610a4b565b600081815260086020526040808220815160808101909252805483929190829060ff166004811115610807576108076117b3565b6004811115610818576108186117b3565b8152602001600182015481526020016002820154815260200160038201548152505090506007816020015110801561086257506202a300816040015161085e9190611912565b4210155b8015610872575060648160600151145b9392505050565b6000818152600260205260408120546001600160a01b0316806104865760405162461bcd60e51b8152602060048201526018602482015277115490cdcc8c4e881a5b9d985b1a59081d1bdad95b88125160421b60448201526064016105b9565b60006108e3610f5c565b600980549060006108f3836118f9565b919050555061090483600954610fb6565b6040518060800160405280836004811115610921576109216117b3565b815260006020808301829052604080840183905260646060909401939093526009548252600890522081518154829060ff19166001836004811115610968576109686117b3565b021790555060208201516001820155604082015160028201556060909101516003909101555060095492915050565b60006001600160a01b038216610a015760405162461bcd60e51b815260206004820152602960248201527f4552433732313a2061646472657373207a65726f206973206e6f7420612076616044820152683634b21037bbb732b960b91b60648201526084016105b9565b506001600160a01b031660009081526003602052604090205490565b610a25610f5c565b610a2f6000611141565b565b60606001805461049b9061185c565b6107b4338383611193565b610a553383610d79565b610a715760405162461bcd60e51b81526004016105b990611896565b610a7d84848484611261565b50505050565b6060610a8e82610cac565b6000610aa560408051602081019091526000815290565b90506000815111610ac55760405180602001604052806000815250610872565b80610acf84611294565b604051602001610ae0929190611925565b6040516020818303038152906040529392505050565b610afe610f5c565b6001600160a01b03919091166000908152600760205260409020805460ff1916911515919091179055565b610b31610f5c565b6001600160a01b038116610b965760405162461bcd60e51b815260206004820152602660248201527f4f776e61626c653a206e6577206f776e657220697320746865207a65726f206160448201526564647265737360d01b60648201526084016105b9565b610b9f81611141565b50565b3360009081526007602052604090205460ff16610bf25760405162461bcd60e51b815260206004820152600e60248201526d139bdd08185d5d1a1bdc9a5e995960921b60448201526064016105b9565b6000828152600260205260409020546001600160a01b0316610c4d5760405162461bcd60e51b8152602060048201526014602482015273151bdad95b88191bd95cc81b9bdd08195e1a5cdd60621b60448201526064016105b9565b6064811115610c975760405162461bcd60e51b815260206004820152601660248201527545786365656473206d6178206475726162696c69747960501b60448201526064016105b9565b60009182526008602052604090912060030155565b6000818152600260205260409020546001600160a01b0316610b9f5760405162461bcd60e51b8152602060048201526018602482015277115490cdcc8c4e881a5b9d985b1a59081d1bdad95b88125160421b60448201526064016105b9565b600081815260046020526040902080546001600160a01b0319166001600160a01b0384169081179091558190610d4082610879565b6001600160a01b03167f8c5be1e5ebec7d5bd14f71427d1e84f3dd0314c0f7b2291e5b200ac8c7c3b92560405160405180910390a45050565b600080610d8583610879565b9050806001600160a01b0316846001600160a01b03161480610dcc57506001600160a01b0380821660009081526005602090815260408083209388168352929052205460ff165b80610df05750836001600160a01b0316610de58461051e565b6001600160a01b0316145b949350505050565b826001600160a01b0316610e0b82610879565b6001600160a01b031614610e315760405162461bcd60e51b81526004016105b990611954565b6001600160a01b038216610e935760405162461bcd60e51b8152602060048201526024808201527f4552433732313a207472616e7366657220746f20746865207a65726f206164646044820152637265737360e01b60648201526084016105b9565b826001600160a01b0316610ea682610879565b6001600160a01b031614610ecc5760405162461bcd60e51b81526004016105b990611954565b600081815260046020908152604080832080546001600160a01b03199081169091556001600160a01b0387811680865260038552838620805460001901905590871680865283862080546001019055868652600290945282852080549092168417909155905184937fddf252ad1be2c89b69c2b068fc378daa952ba7f163c4a11628f55a4df523b3ef91a4505050565b6006546001600160a01b03163314610a2f5760405162461bcd60e51b815260206004820181905260248201527f4f776e61626c653a2063616c6c6572206973206e6f7420746865206f776e657260448201526064016105b9565b6001600160a01b03821661100c5760405162461bcd60e51b815260206004820181905260248201527f4552433732313a206d696e7420746f20746865207a65726f206164647265737360448201526064016105b9565b6000818152600260205260409020546001600160a01b0316156110715760405162461bcd60e51b815260206004820152601c60248201527f4552433732313a20746f6b656e20616c7265616479206d696e7465640000000060448201526064016105b9565b6000818152600260205260409020546001600160a01b0316156110d65760405162461bcd60e51b815260206004820152601c60248201527f4552433732313a20746f6b656e20616c7265616479206d696e7465640000000060448201526064016105b9565b6001600160a01b038216600081815260036020908152604080832080546001019055848352600290915280822080546001600160a01b0319168417905551839291907fddf252ad1be2c89b69c2b068fc378daa952ba7f163c4a11628f55a4df523b3ef908290a45050565b600680546001600160a01b038381166001600160a01b0319831681179093556040519116919082907f8be0079c531659141344cd1fd0a4f28419497f9722a3daafe3b4186f6b6457e090600090a35050565b816001600160a01b0316836001600160a01b0316036111f45760405162461bcd60e51b815260206004820152601960248201527f4552433732313a20617070726f766520746f2063616c6c65720000000000000060448201526064016105b9565b6001600160a01b03838116600081815260056020908152604080832094871680845294825291829020805460ff191686151590811790915591519182527f17307eab39ab6107e8899845ad3d59bd9653f200f220920489ca2b5937696c31910160405180910390a3505050565b61126c848484610df8565b61127884848484611327565b610a7d5760405162461bcd60e51b81526004016105b990611999565b606060006112a183611428565b600101905060008167ffffffffffffffff8111156112c1576112c16116b9565b6040519080825280601f01601f1916602001820160405280156112eb576020820181803683370190505b5090508181016020015b600019016f181899199a1a9b1b9c1cb0b131b232b360811b600a86061a8153600a85049450846112f557509392505050565b60006001600160a01b0384163b1561141d57604051630a85bd0160e11b81526001600160a01b0385169063150b7a029061136b9033908990889088906004016119eb565b6020604051808303816000875af19250505080156113a6575060408051601f3d908101601f191682019092526113a391810190611a28565b60015b611403573d8080156113d4576040519150601f19603f3d011682016040523d82523d6000602084013e6113d9565b606091505b5080516000036113fb5760405162461bcd60e51b81526004016105b990611999565b805181602001fd5b6001600160e01b031916630a85bd0160e11b149050610df0565b506001949350505050565b60008072184f03e93ff9f4daa797ed6e38ed64bf6a1f0160401b83106114675772184f03e93ff9f4daa797ed6e38ed64bf6a1f0160401b830492506040015b6d04ee2d6d415b85acef81000000008310611493576d04ee2d6d415b85acef8100000000830492506020015b662386f26fc1000083106114b157662386f26fc10000830492506010015b6305f5e10083106114c9576305f5e100830492506008015b61271083106114dd57612710830492506004015b606483106114ef576064830492506002015b600a83106104865760010192915050565b6001600160e01b031981168114610b9f57600080fd5b60006020828403121561152857600080fd5b813561087281611500565b60005b8381101561154e578181015183820152602001611536565b50506000910152565b6000815180845261156f816020860160208601611533565b601f01601f19169290920160200192915050565b6020815260006108726020830184611557565b6000602082840312156115a857600080fd5b5035919050565b80356001600160a01b03811681146115c657600080fd5b919050565b600080604083850312156115de57600080fd5b6115e7836115af565b946020939093013593505050565b60008060006060848603121561160a57600080fd5b611613846115af565b9250611621602085016115af565b929592945050506040919091013590565b60006020828403121561164457600080fd5b610872826115af565b6000806040838503121561166057600080fd5b611669836115af565b915060208301356005811061167d57600080fd5b809150509250929050565b6000806040838503121561169b57600080fd5b6116a4836115af565b91506020830135801515811461167d57600080fd5b634e487b7160e01b600052604160045260246000fd5b600080600080608085870312156116e557600080fd5b6116ee856115af565b93506116fc602086016115af565b925060408501359150606085013567ffffffffffffffff81111561171f57600080fd5b8501601f8101871361173057600080fd5b803567ffffffffffffffff81111561174a5761174a6116b9565b604051601f8201601f19908116603f0116810167ffffffffffffffff81118282101715611779576117796116b9565b60405281815282820160200189101561179157600080fd5b8160208401602083013760006020838301015280935050505092959194509250565b634e487b7160e01b600052602160045260246000fd5b60808101600586106117eb57634e487b7160e01b600052602160045260246000fd5b9481526020810193909352604083019190915260609091015290565b6000806040838503121561181a57600080fd5b611823836115af565b9150611831602084016115af565b90509250929050565b6000806040838503121561184d57600080fd5b50508035926020909101359150565b600181811c9082168061187057607f821691505b60208210810361189057634e487b7160e01b600052602260045260246000fd5b50919050565b6020808252602d908201527f4552433732313a2063616c6c6572206973206e6f7420746f6b656e206f776e6560408201526c1c881bdc88185c1c1c9bdd9959609a1b606082015260800190565b634e487b7160e01b600052601160045260246000fd5b60006001820161190b5761190b6118e3565b5060010190565b80820180821115610486576104866118e3565b60008351611937818460208801611533565b83519083019061194b818360208801611533565b01949350505050565b60208082526025908201527f4552433732313a207472616e736665722066726f6d20696e636f72726563742060408201526437bbb732b960d91b606082015260800190565b60208082526032908201527f4552433732313a207472616e7366657220746f206e6f6e20455243373231526560408201527131b2b4bb32b91034b6b83632b6b2b73a32b960711b606082015260800190565b6001600160a01b0385811682528416602082015260408101839052608060608201819052600090611a1e90830184611557565b9695505050505050565b600060208284031215611a3a57600080fd5b81516108728161150056fea2646970667358221220d6673e61918d72d1b382d3eb67bfd912ee3f1728c0bf2e441b1f0241bca136e064736f6c634300081c0033",
  "linkReferences": {},
  "deployedLinkReferences": {}
}