{
  "_format": "hh-sol-artifact-1",
  "contractName": "ShoeboxNFT",
  "sourceName": "contracts/nft/ShoeboxNFT.sol",
  "abi": [
    {
      "inputs": [],
      "stateMutability": "nonpayable",
      "type": "constructor"
    },
    {
      "anonymous": false,
      "inputs": [
        {
          "indexed": true,
          "internalType": "address",
          "name": "owner",
          "type": "address"
        },
        {
          "indexed": true,
          "internalType": "address",
          "name": "approved",
          "type": "address"
        },
        {
          "indexed": true,
          "internalType": "uint256",
          "name": "tokenId",
          "type": "uint256"
        }
      ],
      "name": "Approval",
      "type": "event"
    },
    {
      "anonymous": false,
      "inputs": [
        {
          "indexed": true,
          "internalType": "address",
          "name": "owner",
          "type": "address"
        },
        {
          "indexed": true,
          "internalType": "address",
          "name": "operator",
          "type": "address"
        },
        {
          "indexed": false,
          "internalType": "bool",
          "name": "approved",
          "type": "bool"
        }
      ],
      "name": "ApprovalForAll",
      "type": "event"
    },
    {
      "anonymous": false,
      "inputs": [
        {
          "indexed": true,
          "internalType": "address",
          "name": "previousOwner",
          "type": "address"
        },
        {
          "indexed": true,
          "internalType": "address",
          "name": "newOwner",
          "type": "address"
        }
      ],
      "name": "OwnershipTransferred",
      "type": "event"
    },
    {
      "anonymous": false,
      "inputs": [
        {
          "indexed": true,
          "internalType": "uint256",
          "name": "tokenId",
          "type": "uint256"
        },
        {
          "indexed": false,
          "internalType": "enum Quality",
          "name": "quality",
          "type": "uint8"
        },
        {
          "indexed": false,
          "internalType": "address",
          "name": "to",
          "type": "address"
        }
      ],
      "name": "ShoeboxMinted",
      "type": "event"
    },
    {
      "anonymous": false,
      "inputs": [
        {
          "indexed": true,
          "internalType": "uint256",
          "name": "tokenId",
          "type": "uint256"
        },
        {
          "indexed": false,
          "internalType": "enum Quality",
          "name": "quality",
          "type": "uint8"
        }
      ],
      "name": "ShoeboxOpened",
      "type": "event"
    },
    {
      "anonymous": false,
      "inputs": [
        {
          "indexed": true,
          "internalType": "address",
          "name": "from",
          "type": "address"
        },
        {
          "indexed": true,
          "internalType": "address",
          "name": "to",
          "type": "address"
        },
        {
          "indexed": true,
          "internalType": "uint256",
          "name": "tokenId",
          "type": "uint256"
        }
      ],
      "name": "Transfer",
      "type": "event"
    },
    {
      "inputs": [
        {
          "internalType": "address",
          "name": "to",
          "type": "address"
        },
        {
          "internalType": "uint256",
          "name": "tokenId",
          "type": "uint256"
        }
      ],
      "name": "approve",
      "outputs": [],
      "stateMutability": "nonpayable",
      "type": "function"
    },
    {
      "inputs": [
        {
          "internalType": "address",
          "name": "owner",
          "type": "address"
        }
      ],
      "name": "balanceOf",
      "outputs": [
        {
          "internalType": "uint256",
          "name": "",
          "type": "uint256"
        }
      ],
      "stateMutability": "view",
      "type": "function"
    },
    {
      "inputs": [
        {
          "internalType": "uint256",
          "name": "tokenId",
          "type": "uint256"
        }
      ],
      "name": "getApproved",
      "outputs": [
        {
          "internalType": "address",
          "name": "",
          "type": "address"
        }
      ],
      "stateMutability": "view",
      "type": "function"
    },
    {
      "inputs": [
        {
          "internalType": "uint256",
          "name": "tokenId",
          "type": "uint256"
        }
      ],
      "name": "getQuality",
      "outputs": [
        {
          "internalType": "enum Quality",
          "name": "",
          "type": "uint8"
        }
      ],
      "stateMutability": "view",
      "type": "function"
    },
    {
      "inputs": [
        {
          "internalType": "address",
          "name": "owner",
          "type": "address"
        },
        {
          "internalType": "address",
          "name": "operator",
          "type": "address"
        }
      ],
      "name": "isApprovedForAll",
      "outputs": [
        {
          "internalType": "bool",
          "name": "",
          "type": "bool"
        }
      ],
      "stateMutability": "view",
      "type": "function"
    },
    {
      "inputs": [
        {
          "internalType": "uint256",
          "name": "tokenId",
          "type": "uint256"
        }
      ],
      "name": "isOpened",
      "outputs": [
        {
          "internalType": "bool",
          "name": "",
          "type": "bool"
        }
      ],
      "stateMutability": "view",
      "type": "function"
    },
    {
      "inputs": [
        {
          "internalType": "uint256",
          "name": "tokenId",
          "type": "uint256"
        }
      ],
      "name": "markAsOpened",
      "outputs": [],
      "stateMutability": "nonpayable",
      "type": "function"
    },
    {
      "inputs": [
        {
          "internalType": "address",
          "name": "to",
          "type": "address"
        },
        {
          "internalType": "enum Quality",
          "name": "quality",
          "type": "uint8"
        }
      ],
      "name": "mint",
      "outputs": [
        {
          "internalType": "uint256",
          "name": "",
          "type": "uint256"
        }
      ],
      "stateMutability": "nonpayable",
      "type": "function"
    },
    {
      "inputs": [],
      "name": "name",
      "outputs": [
        {
          "internalType": "string",
          "name": "",
          "type": "string"
        }
      ],
      "stateMutability": "view",
      "type": "function"
    },
    {
      "inputs": [],
      "name": "owner",
      "outputs": [
        {
          "internalType": "address",
          "name": "",
          "type": "address"
        }
      ],
      "stateMutability": "view",
      "type": "function"
    },
    {
      "inputs": [
        {
          "internalType": "uint256",
          "name": "tokenId",
          "type": "uint256"
        }
      ],
      "name": "ownerOf",
      "outputs": [
        {
          "internalType": "address",
          "name": "",
          "type": "address"
        }
      ],
      "stateMutability": "view",
      "type": "function"
    },
    {
      "inputs": [],
      "name": "renounceOwnership",
      "outputs": [],
      "stateMutability": "nonpayable",
      "type": "function"
    },
    {
      "inputs": [
        {
          "internalType": "address",
          "name": "from",
          "type": "address"
        },
        {
          "internalType": "address",
          "name": "to",
          "type": "address"
        },
        {
          "internalType": "uint256",
          "name": "tokenId",
          "type": "uint256"
        }
      ],
      "name": "safeTransferFrom",
      "outputs": [],
      "stateMutability": "nonpayable",
      "type": "function"
    },
    {
      "inputs": [
        {
          "internalType": "address",
          "name": "from",
          "type": "address"
        },
        {
          "internalType": "address",
          "name": "to",
          "type": "address"
        },
        {
          "internalType": "uint256",
          "name": "tokenId",
          "type": "uint256"
        },
        {
          "internalType": "bytes",
          "name": "data",
          "type": "bytes"
        }
      ],
      "name": "safeTransferFrom",
      "outputs": [],
      "stateMutability": "nonpayable",
      "type": "function"
    },
    {
      "inputs": [
        {
          "internalType": "address",
          "name": "operator",
          "type": "address"
        },
        {
          "internalType": "bool",
          "name": "approved",
          "type": "bool"
        }
      ],
      "name": "setApprovalForAll",
      "outputs": [],
      "stateMutability": "nonpayable",
      "type": "function"
    },
    {
      "inputs": [
        {
          "internalType": "uint256",
          "name": "",
          "type": "uint256"
        }
      ],
      "name": "shoeboxes",
      "outputs": [
        {
          "internalType": "enum Quality",
          "name": "quality",
          "type": "uint8"
        },
        {
          "internalType": "bool",
          "name": "isOpened",
          "type": "bool"
        }
      ],
      "stateMutability": "view",
      "type": "function"
    },
    {
      "inputs": [
        {
          "internalType": "bytes4",
          "name": "interfaceId",
          "type": "bytes4"
        }
      ],
      "name": "supportsInterface",
      "outputs": [
        {
          "internalType": "bool",
          "name": "",
          "type": "bool"
        }
      ],
      "stateMutability": "view",
      "type": "function"
    },
    {
      "inputs": [],
      "name": "symbol",
      "outputs": [
        {
          "internalType": "string",
          "name": "",
          "type": "string"
        }
      ],
      "stateMutability": "view",
      "type": "function"
    },
    {
      "inputs": [
        {
          "internalType": "uint256",
          "name": "tokenId",
          "type": "uint256"
        }
      ],
      "name": "tokenURI",
      "outputs": [
        {
          "internalType": "string",
          "name": "",
          "type": "string"
        }
      ],
      "stateMutability": "view",
      "type": "function"
    },
    {
      "inputs": [
        {
          "internalType": "address",
          "name": "from",
          "type": "address"
        },
        {
          "internalType": "address",
          "name": "to",
          "type": "address"
        },
        {
          "internalType": "uint256",
          "name": "tokenId",
          "type": "uint256"
        }
      ],
      "name": "transferFrom",
      "outputs": [],
      "stateMutability": "nonpayable",
      "type": "function"
    },
    {
      "inputs": [
        {
          "internalType": "address",
          "name": "newOwner",
          "type": "address"
        }
      ],
      "name": "transferOwnership",
      "outputs": [],
      "stateMutability": "nonpayable",
      "type": "function"
    }
  ],
  "bytecode": "0x608060405234801561001057600080fd5b5060405180604001604052806012815260200171090cac2d8e8d0a6e8cae040a6d0decac4def60731b815250604051806040016040528060048152602001634853425360e01b81525081600090816100689190610188565b5060016100758282610188565b50505061008e61008961009360201b60201c565b610097565b610246565b3390565b600680546001600160a01b038381166001600160a01b0319831681179093556040519116919082907f8be0079c531659141344cd1fd0a4f28419497f9722a3daafe3b4186f6b6457e090600090a35050565b634e487b7160e01b600052604160045260246000fd5b600181811c9082168061011357607f821691505b60208210810361013357634e487b7160e01b600052602260045260246000fd5b50919050565b601f82111561018357806000526020600020601f840160051c810160208510156101605750805b601f840160051c820191505b81811015610180576000815560010161016c565b50505b505050565b81516001600160401b038111156101a1576101a16100e9565b6101b5816101af84546100ff565b84610139565b6020601f8211600181146101e957600083156101d15750848201515b600019600385901b1c1916600184901b178455610180565b600084815260208120601f198516915b8281101561021957878501518255602094850194600190920191016101f9565b50848210156102375786840151600019600387901b60f8161c191681555b50505050600190811b01905550565b611826806102556000396000f3fe608060405234801561001057600080fd5b50600436106101375760003560e01c8063691562a0116100b8578063a22cb4651161007c578063a22cb465146102a7578063b88d4fde146102ba578063c87b56dd146102cd578063e985e9c5146102e0578063eb8d8ca11461031c578063f2fde38b1461033c57600080fd5b8063691562a01461025257806370a0823114610273578063715018a6146102865780638da5cb5b1461028e57806395d89b411461029f57600080fd5b806323b872dd116100ff57806323b872dd146101cc57806342842e0e146101df5780635faf46bb146101f25780636085c7de146102055780636352211e1461023f57600080fd5b806301ffc9a71461013c57806306fdde0314610164578063081812fc14610179578063095ea7b3146101a4578063239b9d2a146101b9575b600080fd5b61014f61014a36600461129b565b61034f565b60405190151581526020015b60405180910390f35b61016c6103a1565b60405161015b9190611308565b61018c61018736600461131b565b610433565b6040516001600160a01b03909116815260200161015b565b6101b76101b2366004611350565b61045a565b005b6101b76101c736600461131b565b610574565b6101b76101da36600461137a565b610653565b6101b76101ed36600461137a565b610684565b61014f61020036600461131b565b61069f565b61023161021336600461131b565b60076020526000908152604090205460ff8082169161010090041682565b60405161015b9291906113ef565b61018c61024d36600461131b565b6106e1565b61026561026036600461140c565b610741565b60405190815260200161015b565b610265610281366004611447565b610827565b6101b76108ad565b6006546001600160a01b031661018c565b61016c6108c1565b6101b76102b5366004611462565b6108d0565b6101b76102c83660046114a9565b6108df565b61016c6102db36600461131b565b610917565b61014f6102ee36600461158d565b6001600160a01b03918216600090815260056020908152604080832093909416825291909152205460ff1690565b61032f61032a36600461131b565b61098b565b60405161015b91906115c0565b6101b761034a366004611447565b6109c8565b60006001600160e01b031982166380ac58cd60e01b148061038057506001600160e01b03198216635b5e139f60e01b145b8061039b57506301ffc9a760e01b6001600160e01b03198316145b92915050565b6060600080546103b0906115ce565b80601f01602080910402602001604051908101604052809291908181526020018280546103dc906115ce565b80156104295780601f106103fe57610100808354040283529160200191610429565b820191906000526020600020905b81548152906001019060200180831161040c57829003601f168201915b5050505050905090565b600061043e82610a41565b506000908152600460205260409020546001600160a01b031690565b6000610465826106e1565b9050806001600160a01b0316836001600160a01b0316036104d75760405162461bcd60e51b815260206004820152602160248201527f4552433732313a20617070726f76616c20746f2063757272656e74206f776e656044820152603960f91b60648201526084015b60405180910390fd5b336001600160a01b03821614806104f357506104f381336102ee565b6105655760405162461bcd60e51b815260206004820152603d60248201527f4552433732313a20617070726f76652063616c6c6572206973206e6f7420746f60448201527f6b656e206f776e6572206f7220617070726f76656420666f7220616c6c00000060648201526084016104ce565b61056f8383610a91565b505050565b61057c610aff565b61058581610b59565b6105a15760405162461bcd60e51b81526004016104ce90611608565b600081815260076020526040902054610100900460ff16156105f65760405162461bcd60e51b815260206004820152600e60248201526d105b1c9958591e481bdc195b995960921b60448201526064016104ce565b60008181526007602052604090819020805461ff0019811661010017909155905182917ff2d020cab35d48cdbfb4972730788f3034218632b604f6221fc008142675627a916106489160ff16906115c0565b60405180910390a250565b61065d3382610b76565b6106795760405162461bcd60e51b81526004016104ce90611636565b61056f838383610bf5565b61056f838383604051806020016040528060008152506108df565b60006106aa82610b59565b6106c65760405162461bcd60e51b81526004016104ce90611608565b50600090815260076020526040902054610100900460ff1690565b6000818152600260205260408120546001600160a01b03168061039b5760405162461bcd60e51b8152602060048201526018602482015277115490cdcc8c4e881a5b9d985b1a59081d1bdad95b88125160421b60448201526064016104ce565b600061074b610aff565b6008805490600061075b83611683565b919050555061076c83600854610d59565b6040518060400160405280836004811115610789576107896113b7565b815260006020918201819052600854815260079091526040902081518154829060ff191660018360048111156107c1576107c16113b7565b02179055506020919091015181549015156101000261ff00199091161790556008546040517ffccb5f00f389c9cb8a8e59227bbb3adf9b89298abf46cfa4d8ed09632247671e9061081590859087906116aa565b60405180910390a25060085492915050565b60006001600160a01b0382166108915760405162461bcd60e51b815260206004820152602960248201527f4552433732313a2061646472657373207a65726f206973206e6f7420612076616044820152683634b21037bbb732b960b91b60648201526084016104ce565b506001600160a01b031660009081526003602052604090205490565b6108b5610aff565b6108bf6000610ec6565b565b6060600180546103b0906115ce565b6108db338383610f18565b5050565b6108e93383610b76565b6109055760405162461bcd60e51b81526004016104ce90611636565b61091184848484610fe6565b50505050565b606061092282610a41565b600061093960408051602081019091526000815290565b905060008151116109595760405180602001604052806000815250610984565b8061096384611019565b6040516020016109749291906116d0565b6040516020818303038152906040525b9392505050565b600061099682610b59565b6109b25760405162461bcd60e51b81526004016104ce90611608565b5060009081526007602052604090205460ff1690565b6109d0610aff565b6001600160a01b038116610a355760405162461bcd60e51b815260206004820152602660248201527f4f776e61626c653a206e6577206f776e657220697320746865207a65726f206160448201526564647265737360d01b60648201526084016104ce565b610a3e81610ec6565b50565b610a4a81610b59565b610a3e5760405162461bcd60e51b8152602060048201526018602482015277115490cdcc8c4e881a5b9d985b1a59081d1bdad95b88125160421b60448201526064016104ce565b600081815260046020526040902080546001600160a01b0319166001600160a01b0384169081179091558190610ac6826106e1565b6001600160a01b03167f8c5be1e5ebec7d5bd14f71427d1e84f3dd0314c0f7b2291e5b200ac8c7c3b92560405160405180910390a45050565b6006546001600160a01b031633146108bf5760405162461bcd60e51b815260206004820181905260248201527f4f776e61626c653a2063616c6c6572206973206e6f7420746865206f776e657260448201526064016104ce565b6000908152600260205260409020546001600160a01b0316151590565b600080610b82836106e1565b9050806001600160a01b0316846001600160a01b03161480610bc957506001600160a01b0380821660009081526005602090815260408083209388168352929052205460ff165b80610bed5750836001600160a01b0316610be284610433565b6001600160a01b0316145b949350505050565b826001600160a01b0316610c08826106e1565b6001600160a01b031614610c2e5760405162461bcd60e51b81526004016104ce906116ff565b6001600160a01b038216610c905760405162461bcd60e51b8152602060048201526024808201527f4552433732313a207472616e7366657220746f20746865207a65726f206164646044820152637265737360e01b60648201526084016104ce565b826001600160a01b0316610ca3826106e1565b6001600160a01b031614610cc95760405162461bcd60e51b81526004016104ce906116ff565b600081815260046020908152604080832080546001600160a01b03199081169091556001600160a01b0387811680865260038552838620805460001901905590871680865283862080546001019055868652600290945282852080549092168417909155905184937fddf252ad1be2c89b69c2b068fc378daa952ba7f163c4a11628f55a4df523b3ef91a4505050565b6001600160a01b038216610daf5760405162461bcd60e51b815260206004820181905260248201527f4552433732313a206d696e7420746f20746865207a65726f206164647265737360448201526064016104ce565b610db881610b59565b15610e055760405162461bcd60e51b815260206004820152601c60248201527f4552433732313a20746f6b656e20616c7265616479206d696e7465640000000060448201526064016104ce565b610e0e81610b59565b15610e5b5760405162461bcd60e51b815260206004820152601c60248201527f4552433732313a20746f6b656e20616c7265616479206d696e7465640000000060448201526064016104ce565b6001600160a01b038216600081815260036020908152604080832080546001019055848352600290915280822080546001600160a01b0319168417905551839291907fddf252ad1be2c89b69c2b068fc378daa952ba7f163c4a11628f55a4df523b3ef908290a45050565b600680546001600160a01b038381166001600160a01b0319831681179093556040519116919082907f8be0079c531659141344cd1fd0a4f28419497f9722a3daafe3b4186f6b6457e090600090a35050565b816001600160a01b0316836001600160a01b031603610f795760405162461bcd60e51b815260206004820152601960248201527f4552433732313a20617070726f766520746f2063616c6c65720000000000000060448201526064016104ce565b6001600160a01b03838116600081815260056020908152604080832094871680845294825291829020805460ff191686151590811790915591519182527f17307eab39ab6107e8899845ad3d59bd9653f200f220920489ca2b5937696c31910160405180910390a3505050565b610ff1848484610bf5565b610ffd848484846110ac565b6109115760405162461bcd60e51b81526004016104ce90611744565b60606000611026836111ad565b600101905060008167ffffffffffffffff81111561104657611046611493565b6040519080825280601f01601f191660200182016040528015611070576020820181803683370190505b5090508181016020015b600019016f181899199a1a9b1b9c1cb0b131b232b360811b600a86061a8153600a850494508461107a57509392505050565b60006001600160a01b0384163b156111a257604051630a85bd0160e11b81526001600160a01b0385169063150b7a02906110f0903390899088908890600401611796565b6020604051808303816000875af192505050801561112b575060408051601f3d908101601f19168201909252611128918101906117d3565b60015b611188573d808015611159576040519150601f19603f3d011682016040523d82523d6000602084013e61115e565b606091505b5080516000036111805760405162461bcd60e51b81526004016104ce90611744565b805181602001fd5b6001600160e01b031916630a85bd0160e11b149050610bed565b506001949350505050565b60008072184f03e93ff9f4daa797ed6e38ed64bf6a1f0160401b83106111ec5772184f03e93ff9f4daa797ed6e38ed64bf6a1f0160401b830492506040015b6d04ee2d6d415b85acef81000000008310611218576d04ee2d6d415b85acef8100000000830492506020015b662386f26fc10000831061123657662386f26fc10000830492506010015b6305f5e100831061124e576305f5e100830492506008015b612710831061126257612710830492506004015b60648310611274576064830492506002015b600a831061039b5760010192915050565b6001600160e01b031981168114610a3e57600080fd5b6000602082840312156112ad57600080fd5b813561098481611285565b60005b838110156112d35781810151838201526020016112bb565b50506000910152565b600081518084526112f48160208601602086016112b8565b601f01601f19169290920160200192915050565b60208152600061098460208301846112dc565b60006020828403121561132d57600080fd5b5035919050565b80356001600160a01b038116811461134b57600080fd5b919050565b6000806040838503121561136357600080fd5b61136c83611334565b946020939093013593505050565b60008060006060848603121561138f57600080fd5b61139884611334565b92506113a660208501611334565b929592945050506040919091013590565b634e487b7160e01b600052602160045260246000fd5b600581106113eb57634e487b7160e01b600052602160045260246000fd5b9052565b604081016113fd82856113cd565b82151560208301529392505050565b6000806040838503121561141f57600080fd5b61142883611334565b915060208301356005811061143c57600080fd5b809150509250929050565b60006020828403121561145957600080fd5b61098482611334565b6000806040838503121561147557600080fd5b61147e83611334565b91506020830135801515811461143c57600080fd5b634e487b7160e01b600052604160045260246000fd5b600080600080608085870312156114bf57600080fd5b6114c885611334565b93506114d660208601611334565b925060408501359150606085013567ffffffffffffffff8111156114f957600080fd5b8501601f8101871361150a57600080fd5b803567ffffffffffffffff81111561152457611524611493565b604051601f8201601f19908116603f0116810167ffffffffffffffff8111828210171561155357611553611493565b60405281815282820160200189101561156b57600080fd5b8160208401602083013760006020838301015280935050505092959194509250565b600080604083850312156115a057600080fd5b6115a983611334565b91506115b760208401611334565b90509250929050565b6020810161039b82846113cd565b600181811c908216806115e257607f821691505b60208210810361160257634e487b7160e01b600052602260045260246000fd5b50919050565b602080825260149082015273151bdad95b88191bd95cc81b9bdd08195e1a5cdd60621b604082015260600190565b6020808252602d908201527f4552433732313a2063616c6c6572206973206e6f7420746f6b656e206f776e6560408201526c1c881bdc88185c1c1c9bdd9959609a1b606082015260800190565b6000600182016116a357634e487b7160e01b600052601160045260246000fd5b5060010190565b604081016116b882856113cd565b6001600160a01b039290921660209190910152919050565b600083516116e28184602088016112b8565b8351908301906116f68183602088016112b8565b01949350505050565b60208082526025908201527f4552433732313a207472616e736665722066726f6d20696e636f72726563742060408201526437bbb732b960d91b606082015260800190565b60208082526032908201527f4552433732313a207472616e7366657220746f206e6f6e20455243373231526560408201527131b2b4bb32b91034b6b83632b6b2b73a32b960711b606082015260800190565b6001600160a01b03858116825284166020820152604081018390526080606082018190526000906117c9908301846112dc565b9695505050505050565b6000602082840312156117e557600080fd5b81516109848161128556fea26469706673582212205a7a04c0b4f724c1ae1d7628f39f641ed2fd20663eb44482f02c5a04caa05fb264736f6c634300081c0033",
  "linkReferences": {},
  "deployedLinkReferences": {}
}