{
  "_format": "hh-sol-artifact-1",
  "contractName": "Crowdsale",
  "sourceName": "contracts/utility/Crowdsale.sol",
  "abi": [
    {
      "inputs": [
        {
          "internalType": "address",
          "name": "_token",
          "type": "address"
        },
        {
          "internalType": "address",
          "name": "_usdt",
          "type": "address"
        },
        {
          "internalType": "address payable",
          "name": "_wallet",
          "type": "address"
        },
        {
          "internalType": "uint256",
          "name": "_ethRate",
          "type": "uint256"
        },
        {
          "internalType": "uint256",
          "name": "_usdtRate",
          "type": "uint256"
        }
      ],
      "stateMutability": "nonpayable",
      "type": "constructor"
    },
    {
      "anonymous": false,
      "inputs": [
        {
          "indexed": true,
          "internalType": "address",
          "name": "previousOwner",
          "type": "address"
        },
        {
          "indexed": true,
          "internalType": "address",
          "name": "newOwner",
          "type": "address"
        }
      ],
      "name": "OwnershipTransferred",
      "type": "event"
    },
    {
      "inputs": [],
      "name": "MAX_ICO_SUPPLY",
      "outputs": [
        {
          "internalType": "uint256",
          "name": "",
          "type": "uint256"
        }
      ],
      "stateMutability": "view",
      "type": "function"
    },
    {
      "inputs": [],
      "name": "buyWithETH",
      "outputs": [],
      "stateMutability": "payable",
      "type": "function"
    },
    {
      "inputs": [
        {
          "internalType": "uint256",
          "name": "usdtAmount",
          "type": "uint256"
        }
      ],
      "name": "buyWithUSDT",
      "outputs": [],
      "stateMutability": "nonpayable",
      "type": "function"
    },
    {
      "inputs": [
        {
          "internalType": "address",
          "name": "",
          "type": "address"
        }
      ],
      "name": "ethContributions",
      "outputs": [
        {
          "internalType": "uint256",
          "name": "",
          "type": "uint256"
        }
      ],
      "stateMutability": "view",
      "type": "function"
    },
    {
      "inputs": [],
      "name": "ethRate",
      "outputs": [
        {
          "internalType": "uint256",
          "name": "",
          "type": "uint256"
        }
      ],
      "stateMutability": "view",
      "type": "function"
    },
    {
      "inputs": [],
      "name": "icoPhase",
      "outputs": [
        {
          "internalType": "uint256",
          "name": "minEth",
          "type": "uint256"
        },
        {
          "internalType": "uint256",
          "name": "maxEth",
          "type": "uint256"
        },
        {
          "internalType": "uint256",
          "name": "minUSDT",
          "type": "uint256"
        },
        {
          "internalType": "uint256",
          "name": "maxUSDT",
          "type": "uint256"
        }
      ],
      "stateMutability": "view",
      "type": "function"
    },
    {
      "inputs": [],
      "name": "owner",
      "outputs": [
        {
          "internalType": "address",
          "name": "",
          "type": "address"
        }
      ],
      "stateMutability": "view",
      "type": "function"
    },
    {
      "inputs": [],
      "name": "renounceOwnership",
      "outputs": [],
      "stateMutability": "nonpayable",
      "type": "function"
    },
    {
      "inputs": [
        {
          "internalType": "uint256",
          "name": "newRate",
          "type": "uint256"
        }
      ],
      "name": "setEthRate",
      "outputs": [],
      "stateMutability": "nonpayable",
      "type": "function"
    },
    {
      "inputs": [
        {
          "internalType": "uint256",
          "name": "newRate",
          "type": "uint256"
        }
      ],
      "name": "setUsdtRate",
      "outputs": [],
      "stateMutability": "nonpayable",
      "type": "function"
    },
    {
      "inputs": [],
      "name": "token",
      "outputs": [
        {
          "internalType": "contract IERC20",
          "name": "",
          "type": "address"
        }
      ],
      "stateMutability": "view",
      "type": "function"
    },
    {
      "inputs": [],
      "name": "totalTokensSold",
      "outputs": [
        {
          "internalType": "uint256",
          "name": "",
          "type": "uint256"
        }
      ],
      "stateMutability": "view",
      "type": "function"
    },
    {
      "inputs": [
        {
          "internalType": "address",
          "name": "newOwner",
          "type": "address"
        }
      ],
      "name": "transferOwnership",
      "outputs": [],
      "stateMutability": "nonpayable",
      "type": "function"
    },
    {
      "inputs": [],
      "name": "usdt",
      "outputs": [
        {
          "internalType": "contract IERC20",
          "name": "",
          "type": "address"
        }
      ],
      "stateMutability": "view",
      "type": "function"
    },
    {
      "inputs": [
        {
          "internalType": "address",
          "name": "",
          "type": "address"
        }
      ],
      "name": "usdtContributions",
      "outputs": [
        {
          "internalType": "uint256",
          "name": "",
          "type": "uint256"
        }
      ],
      "stateMutability": "view",
      "type": "function"
    },
    {
      "inputs": [],
      "name": "usdtRate",
      "outputs": [
        {
          "internalType": "uint256",
          "name": "",
          "type": "uint256"
        }
      ],
      "stateMutability": "view",
      "type": "function"
    },
    {
      "inputs": [],
      "name": "wallet",
      "outputs": [
        {
          "internalType": "address payable",
          "name": "",
          "type": "address"
        }
      ],
      "stateMutability": "view",
      "type": "function"
    },
    {
      "inputs": [],
      "name": "withdrawFunds",
      "outputs": [],
      "stateMutability": "nonpayable",
      "type": "function"
    }
  ],
  "bytecode": "0x60c060405234801561001057600080fd5b50604051610ddb380380610ddb83398101604081905261002f9161012b565b610038336100c3565b6001600160a01b03948516608090815293851660a052600180546001600160a01b0319169390951692909217909355600292909255600391909155604080519182018152662386f26fc10000808352674563918244f40000602084018190526298968092840183905264012a05f2006060909401849052600591909155600655600755600855610189565b600080546001600160a01b038381166001600160a01b0319831681178455604051919092169283917f8be0079c531659141344cd1fd0a4f28419497f9722a3daafe3b4186f6b6457e09190a35050565b6001600160a01b038116811461012857600080fd5b50565b600080600080600060a0868803121561014357600080fd5b855161014e81610113565b602087015190955061015f81610113565b604087015190945061017081610113565b6060870151608090970151959894975095949392505050565b60805160a051610c186101c36000396000818161017f015261085601526000818161037001528181610555015261090d0152610c186000f3fe6080604052600436106101095760003560e01c80638da5cb5b11610095578063d2d93f9011610064578063d2d93f90146102e5578063e730395a146102fb578063f2fde38b14610328578063f6148bf714610348578063fc0c546a1461035e57600080fd5b80638da5cb5b14610267578063a4bbded414610285578063a7c60160146102a5578063b020961a146102c557600080fd5b8063521eb273116100dc578063521eb273146101b957806363b20117146101d957806368955fb1146101ef5780636f4215b114610232578063715018a61461025257600080fd5b8063150d283d1461010e57806324600fc3146101185780632b2da7c81461012d5780632f48ab7d1461016d575b600080fd5b610116610392565b005b34801561012457600080fd5b5061011661064b565b34801561013957600080fd5b5061015a610148366004610b31565b600a6020526000908152604090205481565b6040519081526020015b60405180910390f35b34801561017957600080fd5b506101a17f000000000000000000000000000000000000000000000000000000000000000081565b6040516001600160a01b039091168152602001610164565b3480156101c557600080fd5b506001546101a1906001600160a01b031681565b3480156101e557600080fd5b5061015a60045481565b3480156101fb57600080fd5b506005546006546007546008546102129392919084565b604080519485526020850193909352918301526060820152608001610164565b34801561023e57600080fd5b5061011661024d366004610b61565b61068f565b34801561025e57600080fd5b5061011661069c565b34801561027357600080fd5b506000546001600160a01b03166101a1565b34801561029157600080fd5b5061015a6b0813f3978f8940984400000081565b3480156102b157600080fd5b506101166102c0366004610b61565b6106b0565b3480156102d157600080fd5b506101166102e0366004610b61565b610a04565b3480156102f157600080fd5b5061015a60025481565b34801561030757600080fd5b5061015a610316366004610b31565b60096020526000908152604090205481565b34801561033457600080fd5b50610116610343366004610b31565b610a11565b34801561035457600080fd5b5061015a60035481565b34801561036a57600080fd5b506101a17f000000000000000000000000000000000000000000000000000000000000000081565b6b0813f3978f89409844000000600454106103e25760405162461bcd60e51b815260206004820152600b60248201526a24a1a79034b99037bb32b960a91b60448201526064015b60405180910390fd5b604080516080810182526005548082526006546020830152600754928201929092526008546060820152903410156104505760405162461bcd60e51b81526020600482015260116024820152704554482062656c6f77206d696e696d756d60781b60448201526064016103d9565b806020015134111561049a5760405162461bcd60e51b81526020600482015260136024820152724554482065786365656473206d6178696d756d60681b60448201526064016103d9565b6000600254346104aa9190610b90565b90506b0813f3978f89409844000000816004546104c79190610bad565b111561050e5760405162461bcd60e51b8152602060048201526016602482015275139bdd08195b9bdd59da081d1bdad95b9cc81b19599d60521b60448201526064016103d9565b336000908152600960205260408120805434929061052d908490610bad565b9250508190555080600460008282546105469190610bad565b90915550506001600160a01b037f0000000000000000000000000000000000000000000000000000000000000000166323b872dd61058c6000546001600160a01b031690565b6040516001600160e01b031960e084901b1681526001600160a01b039091166004820152336024820152604481018490526064016020604051808303816000875af11580156105df573d6000803e3d6000fd5b505050506040513d601f19601f820116820180604052508101906106039190610bc0565b6106475760405162461bcd60e51b8152602060048201526015602482015274151bdad95b881d1c985b9cd9995c8819985a5b1959605a1b60448201526064016103d9565b5050565b610653610a87565b6001546040516001600160a01b03909116904780156108fc02916000818181858888f1935050505015801561068c573d6000803e3d6000fd5b50565b610697610a87565b600255565b6106a4610a87565b6106ae6000610ae1565b565b6b0813f3978f89409844000000600454106106fb5760405162461bcd60e51b815260206004820152600b60248201526a24a1a79034b99037bb32b960a91b60448201526064016103d9565b60408051608081018252600554815260065460208201526007549181018290526008546060820152908210156107685760405162461bcd60e51b8152602060048201526012602482015271555344542062656c6f77206d696e696d756d60701b60448201526064016103d9565b80606001518211156107b35760405162461bcd60e51b8152602060048201526014602482015273555344542065786365656473206d6178696d756d60601b60448201526064016103d9565b6000600354836107c39190610b90565b90506b0813f3978f89409844000000816004546107e09190610bad565b11156108275760405162461bcd60e51b8152602060048201526016602482015275139bdd08195b9bdd59da081d1bdad95b9cc81b19599d60521b60448201526064016103d9565b6001546040516323b872dd60e01b81523360048201526001600160a01b039182166024820152604481018590527f0000000000000000000000000000000000000000000000000000000000000000909116906323b872dd906064016020604051808303816000875af11580156108a1573d6000803e3d6000fd5b505050506040513d601f19601f820116820180604052508101906108c59190610bc0565b50336000908152600a6020526040812080548592906108e5908490610bad565b9250508190555080600460008282546108fe9190610bad565b90915550506001600160a01b037f0000000000000000000000000000000000000000000000000000000000000000166323b872dd6109446000546001600160a01b031690565b6040516001600160e01b031960e084901b1681526001600160a01b039091166004820152336024820152604481018490526064016020604051808303816000875af1158015610997573d6000803e3d6000fd5b505050506040513d601f19601f820116820180604052508101906109bb9190610bc0565b6109ff5760405162461bcd60e51b8152602060048201526015602482015274151bdad95b881d1c985b9cd9995c8819985a5b1959605a1b60448201526064016103d9565b505050565b610a0c610a87565b600355565b610a19610a87565b6001600160a01b038116610a7e5760405162461bcd60e51b815260206004820152602660248201527f4f776e61626c653a206e6577206f776e657220697320746865207a65726f206160448201526564647265737360d01b60648201526084016103d9565b61068c81610ae1565b6000546001600160a01b031633146106ae5760405162461bcd60e51b815260206004820181905260248201527f4f776e61626c653a2063616c6c6572206973206e6f7420746865206f776e657260448201526064016103d9565b600080546001600160a01b038381166001600160a01b0319831681178455604051919092169283917f8be0079c531659141344cd1fd0a4f28419497f9722a3daafe3b4186f6b6457e09190a35050565b600060208284031215610b4357600080fd5b81356001600160a01b0381168114610b5a57600080fd5b9392505050565b600060208284031215610b7357600080fd5b5035919050565b634e487b7160e01b600052601160045260246000fd5b8082028115828204841417610ba757610ba7610b7a565b92915050565b80820180821115610ba757610ba7610b7a565b600060208284031215610bd257600080fd5b81518015158114610b5a57600080fdfea2646970667358221220f6889a336a7ca8c3628dcb726276289d50c4675a0423565d7d75e52ad9d8c5bb64736f6c634300081c0033",
  "linkReferences": {},
  "deployedLinkReferences": {}
}