{
  "_format": "hh-sol-artifact-1",
  "contractName": "TokenDeployer",
  "sourceName": "contracts/utility/deploy.sol",
  "abi": [
    {
      "inputs": [
        {
          "internalType": "address",
          "name": "_bnbPriceFeed",
          "type": "address"
        },
        {
          "internalType": "address",
          "name": "_ethPriceFeed",
          "type": "address"
        },
        {
          "internalType": "address",
          "name": "_usdt",
          "type": "address"
        },
        {
          "internalType": "address",
          "name": "_weth",
          "type": "address"
        },
        {
          "internalType": "address",
          "name": "_teamWallet",
          "type": "address"
        },
        {
          "internalType": "address",
          "name": "_advisorWallet",
          "type": "address"
        },
        {
          "internalType": "address",
          "name": "_ecosystemWallet",
          "type": "address"
        },
        {
          "internalType": "address",
          "name": "_marketingWallet",
          "type": "address"
        }
      ],
      "stateMutability": "nonpayable",
      "type": "constructor"
    },
    {
      "anonymous": false,
      "inputs": [
        {
          "indexed": true,
          "internalType": "address",
          "name": "previousOwner",
          "type": "address"
        },
        {
          "indexed": true,
          "internalType": "address",
          "name": "newOwner",
          "type": "address"
        }
      ],
      "name": "OwnershipTransferred",
      "type": "event"
    },
    {
      "anonymous": false,
      "inputs": [
        {
          "indexed": false,
          "internalType": "enum TokenDeployer.SalePhase",
          "name": "newPhase",
          "type": "uint8"
        }
      ],
      "name": "PhaseChanged",
      "type": "event"
    },
    {
      "anonymous": false,
      "inputs": [
        {
          "indexed": true,
          "internalType": "address",
          "name": "wallet",
          "type": "address"
        },
        {
          "indexed": false,
          "internalType": "uint256",
          "name": "amount",
          "type": "uint256"
        }
      ],
      "name": "TokensClaimed",
      "type": "event"
    },
    {
      "anonymous": false,
      "inputs": [
        {
          "indexed": false,
          "internalType": "address",
          "name": "buyer",
          "type": "address"
        },
        {
          "indexed": false,
          "internalType": "uint256",
          "name": "amountIn",
          "type": "uint256"
        },
        {
          "indexed": false,
          "internalType": "string",
          "name": "tokenType",
          "type": "string"
        },
        {
          "indexed": false,
          "internalType": "uint256",
          "name": "hstAmount",
          "type": "uint256"
        }
      ],
      "name": "TokensPurchased",
      "type": "event"
    },
    {
      "anonymous": false,
      "inputs": [
        {
          "indexed": true,
          "internalType": "address",
          "name": "wallet",
          "type": "address"
        },
        {
          "indexed": false,
          "internalType": "uint256",
          "name": "amount",
          "type": "uint256"
        },
        {
          "indexed": false,
          "internalType": "uint256",
          "name": "startTime",
          "type": "uint256"
        }
      ],
      "name": "VestingScheduleCreated",
      "type": "event"
    },
    {
      "anonymous": false,
      "inputs": [
        {
          "indexed": false,
          "internalType": "string",
          "name": "walletType",
          "type": "string"
        },
        {
          "indexed": false,
          "internalType": "address",
          "name": "newAddress",
          "type": "address"
        }
      ],
      "name": "WalletUpdated",
      "type": "event"
    },
    {
      "inputs": [],
      "name": "ADVISOR_SUPPLY",
      "outputs": [
        {
          "internalType": "uint256",
          "name": "",
          "type": "uint256"
        }
      ],
      "stateMutability": "view",
      "type": "function"
    },
    {
      "inputs": [],
      "name": "BONUS_PERCENT",
      "outputs": [
        {
          "internalType": "uint256",
          "name": "",
          "type": "uint256"
        }
      ],
      "stateMutability": "view",
      "type": "function"
    },
    {
      "inputs": [],
      "name": "CLIFF_DURATION",
      "outputs": [
        {
          "internalType": "uint256",
          "name": "",
          "type": "uint256"
        }
      ],
      "stateMutability": "view",
      "type": "function"
    },
    {
      "inputs": [],
      "name": "ECOSYSTEM_SUPPLY",
      "outputs": [
        {
          "internalType": "uint256",
          "name": "",
          "type": "uint256"
        }
      ],
      "stateMutability": "view",
      "type": "function"
    },
    {
      "inputs": [],
      "name": "HST_PER_USDT",
      "outputs": [
        {
          "internalType": "uint256",
          "name": "",
          "type": "uint256"
        }
      ],
      "stateMutability": "view",
      "type": "function"
    },
    {
      "inputs": [],
      "name": "MARKETING_SUPPLY",
      "outputs": [
        {
          "internalType": "uint256",
          "name": "",
          "type": "uint256"
        }
      ],
      "stateMutability": "view",
      "type": "function"
    },
    {
      "inputs": [],
      "name": "PRESALE_DURATION",
      "outputs": [
        {
          "internalType": "uint256",
          "name": "",
          "type": "uint256"
        }
      ],
      "stateMutability": "view",
      "type": "function"
    },
    {
      "inputs": [],
      "name": "PRESALE_SUPPLY",
      "outputs": [
        {
          "internalType": "uint256",
          "name": "",
          "type": "uint256"
        }
      ],
      "stateMutability": "view",
      "type": "function"
    },
    {
      "inputs": [],
      "name": "PUBLIC_SALE_DURATION",
      "outputs": [
        {
          "internalType": "uint256",
          "name": "",
          "type": "uint256"
        }
      ],
      "stateMutability": "view",
      "type": "function"
    },
    {
      "inputs": [],
      "name": "PUBLIC_SUPPLY",
      "outputs": [
        {
          "internalType": "uint256",
          "name": "",
          "type": "uint256"
        }
      ],
      "stateMutability": "view",
      "type": "function"
    },
    {
      "inputs": [],
      "name": "TEAM_SUPPLY",
      "outputs": [
        {
          "internalType": "uint256",
          "name": "",
          "type": "uint256"
        }
      ],
      "stateMutability": "view",
      "type": "function"
    },
    {
      "inputs": [],
      "name": "TOTAL_SALE_SUPPLY",
      "outputs": [
        {
          "internalType": "uint256",
          "name": "",
          "type": "uint256"
        }
      ],
      "stateMutability": "view",
      "type": "function"
    },
    {
      "inputs": [],
      "name": "USDT",
      "outputs": [
        {
          "internalType": "contract IERC20",
          "name": "",
          "type": "address"
        }
      ],
      "stateMutability": "view",
      "type": "function"
    },
    {
      "inputs": [],
      "name": "VESTING_DURATION",
      "outputs": [
        {
          "internalType": "uint256",
          "name": "",
          "type": "uint256"
        }
      ],
      "stateMutability": "view",
      "type": "function"
    },
    {
      "inputs": [],
      "name": "WETH",
      "outputs": [
        {
          "internalType": "contract IERC20",
          "name": "",
          "type": "address"
        }
      ],
      "stateMutability": "view",
      "type": "function"
    },
    {
      "inputs": [],
      "name": "advisorWallet",
      "outputs": [
        {
          "internalType": "address",
          "name": "",
          "type": "address"
        }
      ],
      "stateMutability": "view",
      "type": "function"
    },
    {
      "inputs": [],
      "name": "bnbPriceFeed",
      "outputs": [
        {
          "internalType": "contract AggregatorV3Interface",
          "name": "",
          "type": "address"
        }
      ],
      "stateMutability": "view",
      "type": "function"
    },
    {
      "inputs": [],
      "name": "buyWithBNB",
      "outputs": [],
      "stateMutability": "payable",
      "type": "function"
    },
    {
      "inputs": [],
      "name": "buyWithETH",
      "outputs": [],
      "stateMutability": "payable",
      "type": "function"
    },
    {
      "inputs": [
        {
          "internalType": "uint256",
          "name": "usdtAmount",
          "type": "uint256"
        }
      ],
      "name": "buyWithUSDT",
      "outputs": [],
      "stateMutability": "nonpayable",
      "type": "function"
    },
    {
      "inputs": [],
      "name": "claimVestedTokens",
      "outputs": [],
      "stateMutability": "nonpayable",
      "type": "function"
    },
    {
      "inputs": [],
      "name": "currentPhase",
      "outputs": [
        {
          "internalType": "enum TokenDeployer.SalePhase",
          "name": "",
          "type": "uint8"
        }
      ],
      "stateMutability": "view",
      "type": "function"
    },
    {
      "inputs": [],
      "name": "ecosystemWallet",
      "outputs": [
        {
          "internalType": "address",
          "name": "",
          "type": "address"
        }
      ],
      "stateMutability": "view",
      "type": "function"
    },
    {
      "inputs": [],
      "name": "ethPriceFeed",
      "outputs": [
        {
          "internalType": "contract AggregatorV3Interface",
          "name": "",
          "type": "address"
        }
      ],
      "stateMutability": "view",
      "type": "function"
    },
    {
      "inputs": [],
      "name": "getBNBPrice",
      "outputs": [
        {
          "internalType": "uint256",
          "name": "",
          "type": "uint256"
        }
      ],
      "stateMutability": "view",
      "type": "function"
    },
    {
      "inputs": [
        {
          "internalType": "address",
          "name": "wallet",
          "type": "address"
        }
      ],
      "name": "getClaimableAmount",
      "outputs": [
        {
          "internalType": "uint256",
          "name": "",
          "type": "uint256"
        }
      ],
      "stateMutability": "view",
      "type": "function"
    },
    {
      "inputs": [],
      "name": "getETHPrice",
      "outputs": [
        {
          "internalType": "uint256",
          "name": "",
          "type": "uint256"
        }
      ],
      "stateMutability": "view",
      "type": "function"
    },
    {
      "inputs": [],
      "name": "getSaleStatus",
      "outputs": [
        {
          "internalType": "enum TokenDeployer.SalePhase",
          "name": "phase",
          "type": "uint8"
        },
        {
          "internalType": "uint256",
          "name": "presaleSoldAmount",
          "type": "uint256"
        },
        {
          "internalType": "uint256",
          "name": "presaleRemaining",
          "type": "uint256"
        },
        {
          "internalType": "uint256",
          "name": "publicSaleSoldAmount",
          "type": "uint256"
        },
        {
          "internalType": "uint256",
          "name": "publicSaleRemaining",
          "type": "uint256"
        },
        {
          "internalType": "uint256",
          "name": "currentBonus",
          "type": "uint256"
        }
      ],
      "stateMutability": "view",
      "type": "function"
    },
    {
      "inputs": [
        {
          "internalType": "address",
          "name": "wallet",
          "type": "address"
        }
      ],
      "name": "getVestingInfo",
      "outputs": [
        {
          "internalType": "uint256",
          "name": "totalAmount",
          "type": "uint256"
        },
        {
          "internalType": "uint256",
          "name": "claimedAmount",
          "type": "uint256"
        },
        {
          "internalType": "uint256",
          "name": "claimableAmount",
          "type": "uint256"
        },
        {
          "internalType": "uint256",
          "name": "startTime",
          "type": "uint256"
        },
        {
          "internalType": "uint256",
          "name": "nextClaimTime",
          "type": "uint256"
        },
        {
          "internalType": "uint256",
          "name": "vestingEndTime",
          "type": "uint256"
        }
      ],
      "stateMutability": "view",
      "type": "function"
    },
    {
      "inputs": [],
      "name": "getWalletBalances",
      "outputs": [
        {
          "internalType": "uint256",
          "name": "teamBalance",
          "type": "uint256"
        },
        {
          "internalType": "uint256",
          "name": "ecosystemBalance",
          "type": "uint256"
        },
        {
          "internalType": "uint256",
          "name": "advisorBalance",
          "type": "uint256"
        },
        {
          "internalType": "uint256",
          "name": "marketingBalance",
          "type": "uint256"
        }
      ],
      "stateMutability": "view",
      "type": "function"
    },
    {
      "inputs": [],
      "name": "hse",
      "outputs": [
        {
          "internalType": "contract HSE",
          "name": "",
          "type": "address"
        }
      ],
      "stateMutability": "view",
      "type": "function"
    },
    {
      "inputs": [],
      "name": "hst",
      "outputs": [
        {
          "internalType": "contract HST",
          "name": "",
          "type": "address"
        }
      ],
      "stateMutability": "view",
      "type": "function"
    },
    {
      "inputs": [],
      "name": "marketingWallet",
      "outputs": [
        {
          "internalType": "address",
          "name": "",
          "type": "address"
        }
      ],
      "stateMutability": "view",
      "type": "function"
    },
    {
      "inputs": [],
      "name": "owner",
      "outputs": [
        {
          "internalType": "address",
          "name": "",
          "type": "address"
        }
      ],
      "stateMutability": "view",
      "type": "function"
    },
    {
      "inputs": [],
      "name": "presaleSold",
      "outputs": [
        {
          "internalType": "uint256",
          "name": "",
          "type": "uint256"
        }
      ],
      "stateMutability": "view",
      "type": "function"
    },
    {
      "inputs": [],
      "name": "publicSaleSold",
      "outputs": [
        {
          "internalType": "uint256",
          "name": "",
          "type": "uint256"
        }
      ],
      "stateMutability": "view",
      "type": "function"
    },
    {
      "inputs": [],
      "name": "renounceOwnership",
      "outputs": [],
      "stateMutability": "nonpayable",
      "type": "function"
    },
    {
      "inputs": [],
      "name": "saleStartTime",
      "outputs": [
        {
          "internalType": "uint256",
          "name": "",
          "type": "uint256"
        }
      ],
      "stateMutability": "view",
      "type": "function"
    },
    {
      "inputs": [],
      "name": "teamWallet",
      "outputs": [
        {
          "internalType": "address",
          "name": "",
          "type": "address"
        }
      ],
      "stateMutability": "view",
      "type": "function"
    },
    {
      "inputs": [
        {
          "internalType": "address",
          "name": "newOwner",
          "type": "address"
        }
      ],
      "name": "transferOwnership",
      "outputs": [],
      "stateMutability": "nonpayable",
      "type": "function"
    },
    {
      "inputs": [
        {
          "internalType": "address",
          "name": "",
          "type": "address"
        }
      ],
      "name": "vestingSchedules",
      "outputs": [
        {
          "internalType": "uint256",
          "name": "totalAmount",
          "type": "uint256"
        },
        {
          "internalType": "uint256",
          "name": "claimedAmount",
          "type": "uint256"
        },
        {
          "internalType": "uint256",
          "name": "startTime",
          "type": "uint256"
        },
        {
          "internalType": "uint256",
          "name": "cliffDuration",
          "type": "uint256"
        },
        {
          "internalType": "uint256",
          "name": "vestingDuration",
          "type": "uint256"
        }
      ],
      "stateMutability": "view",
      "type": "function"
    },
    {
      "inputs": [],
      "name": "withdrawBNB",
      "outputs": [],
      "stateMutability": "nonpayable",
      "type": "function"
    },
    {
      "inputs": [],
      "name": "withdrawUSDT",
      "outputs": [],
      "stateMutability": "nonpayable",
      "type": "function"
    },
    {
      "stateMutability": "payable",
      "type": "receive"
    }
  ],
  "bytecode": "0x608060405234801561001057600080fd5b506040516143ae3803806143ae83398101604081905261002f916108a7565b610038336106cb565b6001600160a01b0384166100935760405162461bcd60e51b815260206004820152601360248201527f496e76616c6964207465616d2077616c6c65740000000000000000000000000060448201526064015b60405180910390fd5b6001600160a01b0383166100e95760405162461bcd60e51b815260206004820152601660248201527f496e76616c69642061647669736f722077616c6c657400000000000000000000604482015260640161008a565b6001600160a01b03821661013f5760405162461bcd60e51b815260206004820152601860248201527f496e76616c69642065636f73797374656d2077616c6c65740000000000000000604482015260640161008a565b6001600160a01b0381166101955760405162461bcd60e51b815260206004820152601860248201527f496e76616c6964206d61726b6574696e672077616c6c65740000000000000000604482015260640161008a565b6040516101a190610871565b604051809103906000f0801580156101bd573d6000803e3d6000fd5b50600180546001600160a01b0319166001600160a01b03929092169190911790556040516101ea9061087e565b604051809103906000f080158015610206573d6000803e3d6000fd5b50600280546001600160a01b0319166001600160a01b03928316179055600154604080516318160ddd60e01b8152905191909216916318160ddd9160048083019260209291908290030181865afa158015610265573d6000803e3d6000fd5b505050506040513d601f19601f82011682018060405250810190610289919061093e565b6b01f04ef12cb04cf1580000006a7c13bc4b2c133c560000006b026c62ad77dc602dae0000006102d16b04d8c55aefb8c05b5c0000006b06765c793fa10079d0000000610957565b6102db9190610957565b6102e59190610957565b6102ef9190610957565b1461033c5760405162461bcd60e51b815260206004820152601460248201527f496e76616c696420746f74616c20737570706c79000000000000000000000000604482015260640161008a565b600580546001600160a01b03199081166001600160a01b038b8116919091179092556006805482168a8416179055600380548216898416179055600480548216888416178155600a80548316888516908117909155600c80548416888616179055600b80548416878616179055600d8054909316938516939093179091556040805181815290810191909152635465616d60e01b6060820152602081019190915260008051602061438e8339815191529060800160405180910390a1604080518181526007818301526620b23b34b9b7b960c91b60608201526001600160a01b0385166020820152905160008051602061438e8339815191529181900360800190a1604080518181526009818301526845636f73797374656d60b81b60608201526001600160a01b0384166020820152905160008051602061438e8339815191529181900360800190a160408051818152600981830152684d61726b6574696e6760b81b60608201526001600160a01b0383166020820152905160008051602061438e8339815191529181900360800190a16006805460ff60a01b19169055600a546104fd906001600160a01b03166b026c62ad77dc602dae00000061071b565b600c5461051e906001600160a01b03166a7c13bc4b2c133c5600000061071b565b600154600d5460405163a9059cbb60e01b81526001600160a01b0391821660048201526b01f04ef12cb04cf158000000602482015291169063a9059cbb906044016020604051808303816000875af115801561057e573d6000803e3d6000fd5b505050506040513d601f19601f820116820180604052508101906105a2919061097e565b6105ee5760405162461bcd60e51b815260206004820152601960248201527f4d61726b6574696e67207472616e73666572206661696c656400000000000000604482015260640161008a565b600154600b5460405163a9059cbb60e01b81526001600160a01b0391821660048201526b04d8c55aefb8c05b5c000000602482015291169063a9059cbb906044016020604051808303816000875af115801561064e573d6000803e3d6000fd5b505050506040513d601f19601f82011682018060405250810190610672919061097e565b6106be5760405162461bcd60e51b815260206004820152601960248201527f45636f73797374656d207472616e73666572206661696c656400000000000000604482015260640161008a565b50505050505050506109a7565b600080546001600160a01b038381166001600160a01b0319831681178455604051919092169283917f8be0079c531659141344cd1fd0a4f28419497f9722a3daafe3b4186f6b6457e09190a35050565b6001600160a01b0382166107625760405162461bcd60e51b815260206004820152600e60248201526d125b9d985b1a59081dd85b1b195d60921b604482015260640161008a565b6001600160a01b0382166000908152600e6020526040902054156107c85760405162461bcd60e51b815260206004820152601560248201527f56657374696e6720616c72656164792073657475700000000000000000000000604482015260640161008a565b6040805160a081018252828152600060208083018281524284860181815262ed4e00606087019081526303b53800608088019081526001600160a01b038b16808852600e8752968990209751885593516001880155905160028701555160038601559051600490940193909355835185815290810192909252917f402b9fa52520ce724d8e25ad1521f70484bd3c833f98ed26451d7c9666820203910160405180910390a25050565b610d7a806125f383390190565b6110218061336d83390190565b80516001600160a01b03811681146108a257600080fd5b919050565b600080600080600080600080610100898b0312156108c457600080fd5b6108cd8961088b565b97506108db60208a0161088b565b96506108e960408a0161088b565b95506108f760608a0161088b565b945061090560808a0161088b565b935061091360a08a0161088b565b925061092160c08a0161088b565b915061092f60e08a0161088b565b90509295985092959890939650565b60006020828403121561095057600080fd5b5051919050565b8082018082111561097857634e487b7160e01b600052601160045260246000fd5b92915050565b60006020828403121561099057600080fd5b815180151581146109a057600080fd5b9392505050565b611c3d806109b66000396000f3fe6080604052600436106102605760003560e01c80638c3c4b3411610144578063c54e44eb116100b6578063e74f3fbb1161007a578063e74f3fbb1461069a578063f2220c9e146106af578063f2fde38b146106c4578063fb2f665614610494578063fb897ce4146106e4578063fdb20ccb1461073157600080fd5b8063c54e44eb146105f0578063d82d414b14610610578063da267bc814610645578063df9189b41461065a578063e12f3a611461067a57600080fd5b8063a7c6016011610108578063a7c6016014610544578063a7ddfbc614610564578063ad5c464814610579578063af7665ce14610599578063b3daa652146105b9578063b9c3a818146105d057600080fd5b80638c3c4b34146104d45780638da5cb5b146104fb578063923a3ff114610519578063945e40131461047d578063a607a8d91461052f57600080fd5b80634cfc4d30116101dd578063715018a6116101a1578063715018a61461042857806373138e4f1461043d57806375f0a8741461045d5780637ff3bf8e1461047d5780638342083a146104945780638c3002e2146104b457600080fd5b80634cfc4d301461039157806350c2e4f6146103a957806359927044146103c85780635e15dd6c146103e8578063610bdf5d1461040857600080fd5b806320f1fc611161022457806320f1fc6114610306578063319db3be1461030e578063362e496b14610346578063435263ef1461035b57806348cebd671461037b57600080fd5b8063055ad42e1461026c578063150d283d146102a35780631be64fe8146102ad5780631cbaee2d146102db5780631d111d13146102f157600080fd5b3661026757005b600080fd5b34801561027857600080fd5b5060065461028d90600160a01b900460ff1681565b60405161029a9190611a13565b60405180910390f35b6102ab6107a3565b005b3480156102b957600080fd5b506102cd6b06765c793fa10079d000000081565b60405190815260200161029a565b3480156102e757600080fd5b506102cd60075481565b3480156102fd57600080fd5b506102ab610914565b6102ab6109cd565b34801561031a57600080fd5b50600c5461032e906001600160a01b031681565b6040516001600160a01b03909116815260200161029a565b34801561035257600080fd5b506102ab610b30565b34801561036757600080fd5b50600b5461032e906001600160a01b031681565b34801561038757600080fd5b506102cd60085481565b34801561039d57600080fd5b506102cd6303b5380081565b3480156103b557600080fd5b506102cd6a7c13bc4b2c133c5600000081565b3480156103d457600080fd5b50600a5461032e906001600160a01b031681565b3480156103f457600080fd5b506102cd6b04d8c55aefb8c05b5c00000081565b34801561041457600080fd5b5060015461032e906001600160a01b031681565b34801561043457600080fd5b506102ab610c84565b34801561044957600080fd5b506102cd6b04860d8812f0b3887800000081565b34801561046957600080fd5b50600d5461032e906001600160a01b031681565b34801561048957600080fd5b506102cd62278d0081565b3480156104a057600080fd5b506102cd6b01f04ef12cb04cf15800000081565b3480156104c057600080fd5b5060025461032e906001600160a01b031681565b3480156104e057600080fd5b506104e9610c98565b60405161029a96959493929190611a21565b34801561050757600080fd5b506000546001600160a01b031661032e565b34801561052557600080fd5b506102cd60095481565b34801561053b57600080fd5b506102cd610d29565b34801561055057600080fd5b506102ab61055f366004611a57565b610dae565b34801561057057600080fd5b506102cd600a81565b34801561058557600080fd5b5060045461032e906001600160a01b031681565b3480156105a557600080fd5b5060065461032e906001600160a01b031681565b3480156105c557600080fd5b506102cd62ed4e0081565b3480156105dc57600080fd5b506102cd6b026c62ad77dc602dae00000081565b3480156105fc57600080fd5b5060035461032e906001600160a01b031681565b34801561061c57600080fd5b50610625610fac565b60408051948552602085019390935291830152606082015260800161029a565b34801561065157600080fd5b506102cd600f81565b34801561066657600080fd5b5060055461032e906001600160a01b031681565b34801561068657600080fd5b506102cd610695366004611a70565b611185565b3480156106a657600080fd5b506102ab61128e565b3480156106bb57600080fd5b506102cd61145f565b3480156106d057600080fd5b506102ab6106df366004611a70565b6114b5565b3480156106f057600080fd5b506107046106ff366004611a70565b61152b565b604080519687526020870195909552938501929092526060840152608083015260a082015260c00161029a565b34801561073d57600080fd5b5061077b61074c366004611a70565b600e60205260009081526040902080546001820154600283015460038401546004909401549293919290919085565b604080519586526020860194909452928401919091526060830152608082015260a00161029a565b600034116107eb5760405162461bcd60e51b815260206004820152601060248201526f09ccacac840e8de40e6cadcc8408aa8960831b60448201526064015b60405180910390fd5b60006107f5610d29565b905060006305f5e1006108088334611aaf565b6108129190611ac6565b9050600061081f82611656565b60015460405163a9059cbb60e01b8152336004820152602481018390529192506001600160a01b03169063a9059cbb906044016020604051808303816000875af1158015610871573d6000803e3d6000fd5b505050506040513d601f19601f820116820180604052508101906108959190611ae8565b6108b15760405162461bcd60e51b81526004016107e290611b0a565b6040805133815234602082015260809181018290526003918101919091526208aa8960eb1b60a0820152606081018290527e6ca7d2c44d6e569afe57352cb8c4ab46a818e0d44905516c75216d9fa6f14b9060c0015b60405180910390a1505050565b61091c611931565b4760006109316000546001600160a01b031690565b6001600160a01b03168260405160006040518083038185875af1925050503d806000811461097b576040519150601f19603f3d011682016040523d82523d6000602084013e610980565b606091505b50509050806109c95760405162461bcd60e51b8152602060048201526015602482015274109390881dda5d1a191c985dd85b0819985a5b1959605a1b60448201526064016107e2565b5050565b60003411610a105760405162461bcd60e51b815260206004820152601060248201526f2732b2b2103a379039b2b7321021272160811b60448201526064016107e2565b6000610a1a61145f565b905060006305f5e100610a2d8334611aaf565b610a379190611ac6565b90506000610a4482611656565b60015460405163a9059cbb60e01b8152336004820152602481018390529192506001600160a01b03169063a9059cbb906044016020604051808303816000875af1158015610a96573d6000803e3d6000fd5b505050506040513d601f19601f82011682018060405250810190610aba9190611ae8565b610ad65760405162461bcd60e51b81526004016107e290611b0a565b6040805133815234602082015260809181018290526003918101919091526221272160e91b60a0820152606081018290527e6ca7d2c44d6e569afe57352cb8c4ab46a818e0d44905516c75216d9fa6f14b9060c001610907565b610b38611931565b6003546040516370a0823160e01b81523060048201526000916001600160a01b0316906370a0823190602401602060405180830381865afa158015610b81573d6000803e3d6000fd5b505050506040513d601f19601f82011682018060405250810190610ba59190611b37565b6003549091506001600160a01b031663a9059cbb610bcb6000546001600160a01b031690565b6040516001600160e01b031960e084901b1681526001600160a01b039091166004820152602481018490526044016020604051808303816000875af1158015610c18573d6000803e3d6000fd5b505050506040513d601f19601f82011682018060405250810190610c3c9190611ae8565b610c815760405162461bcd60e51b81526020600482015260166024820152751554d115081dda5d1a191c985dd85b0819985a5b195960521b60448201526064016107e2565b50565b610c8c611931565b610c96600061198b565b565b600080600080600080600660149054906101000a900460ff166008546008546b04860d8812f0b38878000000610cce9190611b50565b600954610ce7816b01f04ef12cb04cf158000000611b50565b6000600654600160a01b900460ff166002811115610d0757610d076119db565b14610d13576000610d16565b600f5b949b939a50919850965094509092509050565b600080600660009054906101000a90046001600160a01b03166001600160a01b031663feaf968c6040518163ffffffff1660e01b815260040160a060405180830381865afa158015610d7f573d6000803e3d6000fd5b505050506040513d601f19601f82011682018060405250810190610da39190611b82565b509195945050505050565b60008111610df25760405162461bcd60e51b815260206004820152601160248201527013995959081d1bc81cd95b99081554d115607a1b60448201526064016107e2565b6003546040516323b872dd60e01b8152336004820152306024820152604481018390526001600160a01b03909116906323b872dd906064016020604051808303816000875af1158015610e49573d6000803e3d6000fd5b505050506040513d601f19601f82011682018060405250810190610e6d9190611ae8565b610eb05760405162461bcd60e51b81526020600482015260146024820152731554d115081d1c985b9cd9995c8819985a5b195960621b60448201526064016107e2565b6000610ebb82611656565b60015460405163a9059cbb60e01b8152336004820152602481018390529192506001600160a01b03169063a9059cbb906044016020604051808303816000875af1158015610f0d573d6000803e3d6000fd5b505050506040513d601f19601f82011682018060405250810190610f319190611ae8565b610f4d5760405162461bcd60e51b81526004016107e290611b0a565b60408051338152602081018490526080818301819052600490820152631554d11560e21b60a08201526060810183905290517e6ca7d2c44d6e569afe57352cb8c4ab46a818e0d44905516c75216d9fa6f14b9181900360c00190a15050565b600154600a546040516370a0823160e01b81526001600160a01b03918216600482015260009283928392839291909116906370a0823190602401602060405180830381865afa158015611003573d6000803e3d6000fd5b505050506040513d601f19601f820116820180604052508101906110279190611b37565b600154600b546040516370a0823160e01b81526001600160a01b0391821660048201529116906370a0823190602401602060405180830381865afa158015611073573d6000803e3d6000fd5b505050506040513d601f19601f820116820180604052508101906110979190611b37565b600154600c546040516370a0823160e01b81526001600160a01b0391821660048201529116906370a0823190602401602060405180830381865afa1580156110e3573d6000803e3d6000fd5b505050506040513d601f19601f820116820180604052508101906111079190611b37565b600154600d546040516370a0823160e01b81526001600160a01b0391821660048201529116906370a0823190602401602060405180830381865afa158015611153573d6000803e3d6000fd5b505050506040513d601f19601f820116820180604052508101906111779190611b37565b935093509350935090919293565b6001600160a01b0381166000908152600e60209081526040808320815160a0810183528154808252600183015494820194909452600282015492810192909252600381015460608301526004015460808201529082036111e85750600092915050565b806060015181604001516111fc9190611bd4565b42101561120c5750600092915050565b806080015181604001516112209190611bd4565b421061123e57602081015181516112379190611b50565b9392505050565b60008160400151426112509190611b50565b9050600082608001518284600001516112699190611aaf565b6112739190611ac6565b90508260200151816112859190611b50565b95945050505050565b600a546001600160a01b03163314806112b15750600c546001600160a01b031633145b6112f45760405162461bcd60e51b8152602060048201526014602482015273139bdd0818481d995cdd1a5b99c81dd85b1b195d60621b60448201526064016107e2565b60006112ff33611185565b9050600081116113475760405162461bcd60e51b81526020600482015260136024820152724e6f20746f6b656e7320636c61696d61626c6560681b60448201526064016107e2565b336000908152600e602052604081206001018054839290611369908490611bd4565b909155505060015460405163a9059cbb60e01b8152336004820152602481018390526001600160a01b039091169063a9059cbb906044016020604051808303816000875af11580156113bf573d6000803e3d6000fd5b505050506040513d601f19601f820116820180604052508101906113e39190611ae8565b6114275760405162461bcd60e51b8152602060048201526015602482015274151bdad95b881d1c985b9cd9995c8819985a5b1959605a1b60448201526064016107e2565b60405181815233907f896e034966eaaf1adc54acc0f257056febbd300c9e47182cf761982cf1f5e4309060200160405180910390a250565b600080600560009054906101000a90046001600160a01b03166001600160a01b031663feaf968c6040518163ffffffff1660e01b815260040160a060405180830381865afa158015610d7f573d6000803e3d6000fd5b6114bd611931565b6001600160a01b0381166115225760405162461bcd60e51b815260206004820152602660248201527f4f776e61626c653a206e6577206f776e657220697320746865207a65726f206160448201526564647265737360d01b60648201526084016107e2565b610c818161198b565b600a54600090819081908190819081906001600160a01b03888116911614806115615750600c546001600160a01b038881169116145b6115b95760405162461bcd60e51b815260206004820152602360248201527f4e6f2076657374696e67207363686564756c6520666f7220746869732077616c6044820152621b195d60ea1b60648201526084016107e2565b6001600160a01b0387166000908152600e6020908152604091829020825160a0810184528154808252600183015493820184905260028301549482019490945260038201546060820152600490910154608082015291906116198a611185565b6040840151606085015161162d9082611bd4565b856080015186604001516116419190611bd4565b949d939c50919a509850965090945092505050565b60006002600654600160a01b900460ff166002811115611678576116786119db565b036116b25760405162461bcd60e51b815260206004820152600a60248201526914d85b1948195b99195960b21b60448201526064016107e2565b60006116bf600a84611aaf565b90506000600654600160a01b900460ff1660028111156116e1576116e16119db565b036118345760646116f3600f83611aaf565b6116fd9190611ac6565b6117079082611bd4565b90506b04860d8812f0b38878000000816008546117249190611bd4565b11156117c8576006805460ff60a01b1916600160a01b179055604051600080516020611be88339815191529061175c90600190611a13565b60405180910390a160405162461bcd60e51b815260206004820152603360248201527f50726573616c6520636f6d706c657465642c20706c656173652074727920616760448201527261696e20666f72207075626c69632073616c6560681b60648201526084016107e2565b80600860008282546117da9190611bd4565b90915550506008546b04860d8812f0b388780000001161182f576006805460ff60a01b1916600160a01b179055604051600080516020611be88339815191529061182690600190611a13565b60405180910390a15b61192b565b6b01f04ef12cb04cf1580000008160095461184f9190611bd4565b11156118c4576006805460ff60a01b1916600160a11b179055604051600080516020611be88339815191529061188790600290611a13565b60405180910390a160405162461bcd60e51b815260206004820152600a60248201526914d85b1948195b99195960b21b60448201526064016107e2565b80600960008282546118d69190611bd4565b90915550506009546b01f04ef12cb04cf1580000001161192b576006805460ff60a01b1916600160a11b179055604051600080516020611be88339815191529061192290600290611a13565b60405180910390a15b92915050565b6000546001600160a01b03163314610c965760405162461bcd60e51b815260206004820181905260248201527f4f776e61626c653a2063616c6c6572206973206e6f7420746865206f776e657260448201526064016107e2565b600080546001600160a01b038381166001600160a01b0319831681178455604051919092169283917f8be0079c531659141344cd1fd0a4f28419497f9722a3daafe3b4186f6b6457e09190a35050565b634e487b7160e01b600052602160045260246000fd5b60038110611a0f57634e487b7160e01b600052602160045260246000fd5b9052565b6020810161192b82846119f1565b60c08101611a2f82896119f1565b602082019690965260408101949094526060840192909252608083015260a090910152919050565b600060208284031215611a6957600080fd5b5035919050565b600060208284031215611a8257600080fd5b81356001600160a01b038116811461123757600080fd5b634e487b7160e01b600052601160045260246000fd5b808202811582820484141761192b5761192b611a99565b600082611ae357634e487b7160e01b600052601260045260246000fd5b500490565b600060208284031215611afa57600080fd5b8151801515811461123757600080fd5b6020808252601390820152721214d5081d1c985b9cd9995c8819985a5b1959606a1b604082015260600190565b600060208284031215611b4957600080fd5b5051919050565b8181038181111561192b5761192b611a99565b805169ffffffffffffffffffff81168114611b7d57600080fd5b919050565b600080600080600060a08688031215611b9a57600080fd5b611ba386611b63565b60208701516040880151606089015192975090955093509150611bc860808701611b63565b90509295509295909350565b8082018082111561192b5761192b611a9956fea6dcc92f45df25789d5639b7a0c97ba1edf3bb1c0b5dd3376fd96a0db87c4642a26469706673582212202d656c74499a371dafdb06065ceecf31d39c6febc452470778ad37de07d1b13164736f6c634300081c0033608060405234801561001057600080fd5b50604051806040016040528060118152602001702432b0b63a341029ba32b8102a37b5b2b760791b815250604051806040016040528060038152602001621214d560ea1b81525081600390816100669190610263565b5060046100738282610263565b50505061008c6100876100a760201b60201c565b6100ab565b6100a2336b1027e72f1f128130880000006100fd565b610348565b3390565b600580546001600160a01b038381166001600160a01b0319831681179093556040519116919082907f8be0079c531659141344cd1fd0a4f28419497f9722a3daafe3b4186f6b6457e090600090a35050565b6001600160a01b0382166101575760405162461bcd60e51b815260206004820152601f60248201527f45524332303a206d696e7420746f20746865207a65726f206164647265737300604482015260640160405180910390fd5b80600260008282546101699190610321565b90915550506001600160a01b038216600081815260208181526040808320805486019055518481527fddf252ad1be2c89b69c2b068fc378daa952ba7f163c4a11628f55a4df523b3ef910160405180910390a35050565b505050565b634e487b7160e01b600052604160045260246000fd5b600181811c908216806101ef57607f821691505b60208210810361020f57634e487b7160e01b600052602260045260246000fd5b50919050565b601f8211156101c057806000526020600020601f840160051c8101602085101561023c5750805b601f840160051c820191505b8181101561025c5760008155600101610248565b5050505050565b81516001600160401b0381111561027c5761027c6101c5565b6102908161028a84546101db565b84610215565b6020601f8211600181146102c457600083156102ac5750848201515b600019600385901b1c1916600184901b17845561025c565b600084815260208120601f198516915b828110156102f457878501518255602094850194600190920191016102d4565b50848210156103125786840151600019600387901b60f8161c191681555b50505050600190811b01905550565b8082018082111561034257634e487b7160e01b600052601160045260246000fd5b92915050565b610a23806103576000396000f3fe608060405234801561001057600080fd5b50600436106100f55760003560e01c806370a0823111610097578063a457c2d711610066578063a457c2d7146101eb578063a9059cbb146101fe578063dd62ed3e14610211578063f2fde38b1461022457600080fd5b806370a0823114610195578063715018a6146101be5780638da5cb5b146101c857806395d89b41146101e357600080fd5b806323b872dd116100d357806323b872dd1461014d578063313ce5671461016057806332cb6b0c1461016f578063395093511461018257600080fd5b806306fdde03146100fa578063095ea7b31461011857806318160ddd1461013b575b600080fd5b610102610237565b60405161010f919061086c565b60405180910390f35b61012b6101263660046108d6565b6102c9565b604051901515815260200161010f565b6002545b60405190815260200161010f565b61012b61015b366004610900565b6102e3565b6040516012815260200161010f565b61013f6b1027e72f1f1281308800000081565b61012b6101903660046108d6565b610307565b61013f6101a336600461093d565b6001600160a01b031660009081526020819052604090205490565b6101c6610329565b005b6005546040516001600160a01b03909116815260200161010f565b61010261033d565b61012b6101f93660046108d6565b61034c565b61012b61020c3660046108d6565b6103cc565b61013f61021f36600461095f565b6103da565b6101c661023236600461093d565b610405565b60606003805461024690610992565b80601f016020809104026020016040519081016040528092919081815260200182805461027290610992565b80156102bf5780601f10610294576101008083540402835291602001916102bf565b820191906000526020600020905b8154815290600101906020018083116102a257829003601f168201915b5050505050905090565b6000336102d781858561047e565b60019150505b92915050565b6000336102f18582856105a2565b6102fc85858561061c565b506001949350505050565b6000336102d781858561031a83836103da565b61032491906109cc565b61047e565b6103316107c0565b61033b600061081a565b565b60606004805461024690610992565b6000338161035a82866103da565b9050838110156103bf5760405162461bcd60e51b815260206004820152602560248201527f45524332303a2064656372656173656420616c6c6f77616e63652062656c6f77604482015264207a65726f60d81b60648201526084015b60405180910390fd5b6102fc828686840361047e565b6000336102d781858561061c565b6001600160a01b03918216600090815260016020908152604080832093909416825291909152205490565b61040d6107c0565b6001600160a01b0381166104725760405162461bcd60e51b815260206004820152602660248201527f4f776e61626c653a206e6577206f776e657220697320746865207a65726f206160448201526564647265737360d01b60648201526084016103b6565b61047b8161081a565b50565b6001600160a01b0383166104e05760405162461bcd60e51b8152602060048201526024808201527f45524332303a20617070726f76652066726f6d20746865207a65726f206164646044820152637265737360e01b60648201526084016103b6565b6001600160a01b0382166105415760405162461bcd60e51b815260206004820152602260248201527f45524332303a20617070726f766520746f20746865207a65726f206164647265604482015261737360f01b60648201526084016103b6565b6001600160a01b0383811660008181526001602090815260408083209487168084529482529182902085905590518481527f8c5be1e5ebec7d5bd14f71427d1e84f3dd0314c0f7b2291e5b200ac8c7c3b925910160405180910390a3505050565b60006105ae84846103da565b9050600019811461061657818110156106095760405162461bcd60e51b815260206004820152601d60248201527f45524332303a20696e73756666696369656e7420616c6c6f77616e636500000060448201526064016103b6565b610616848484840361047e565b50505050565b6001600160a01b0383166106805760405162461bcd60e51b815260206004820152602560248201527f45524332303a207472616e736665722066726f6d20746865207a65726f206164604482015264647265737360d81b60648201526084016103b6565b6001600160a01b0382166106e25760405162461bcd60e51b815260206004820152602360248201527f45524332303a207472616e7366657220746f20746865207a65726f206164647260448201526265737360e81b60648201526084016103b6565b6001600160a01b0383166000908152602081905260409020548181101561075a5760405162461bcd60e51b815260206004820152602660248201527f45524332303a207472616e7366657220616d6f756e7420657863656564732062604482015265616c616e636560d01b60648201526084016103b6565b6001600160a01b03848116600081815260208181526040808320878703905593871680835291849020805487019055925185815290927fddf252ad1be2c89b69c2b068fc378daa952ba7f163c4a11628f55a4df523b3ef910160405180910390a3610616565b6005546001600160a01b0316331461033b5760405162461bcd60e51b815260206004820181905260248201527f4f776e61626c653a2063616c6c6572206973206e6f7420746865206f776e657260448201526064016103b6565b600580546001600160a01b038381166001600160a01b0319831681179093556040519116919082907f8be0079c531659141344cd1fd0a4f28419497f9722a3daafe3b4186f6b6457e090600090a35050565b602081526000825180602084015260005b8181101561089a576020818601810151604086840101520161087d565b506000604082850101526040601f19601f83011684010191505092915050565b80356001600160a01b03811681146108d157600080fd5b919050565b600080604083850312156108e957600080fd5b6108f2836108ba565b946020939093013593505050565b60008060006060848603121561091557600080fd5b61091e846108ba565b925061092c602085016108ba565b929592945050506040919091013590565b60006020828403121561094f57600080fd5b610958826108ba565b9392505050565b6000806040838503121561097257600080fd5b61097b836108ba565b9150610989602084016108ba565b90509250929050565b600181811c908216806109a657607f821691505b6020821081036109c657634e487b7160e01b600052602260045260246000fd5b50919050565b808201808211156102dd57634e487b7160e01b600052601160045260246000fdfea26469706673582212201aa918f504b8e24c9fe916c5c586bab38f04890bd236a9859686fecbc564766064736f6c634300081c0033608060405234801561001057600080fd5b506040518060400160405280601081526020016f2432b0b63a341029ba32b81022b0b93760811b8152506040518060400160405280600381526020016248534560e81b81525081600390816100659190610185565b5060046100728282610185565b50505061008b61008661009060201b60201c565b610094565b610243565b3390565b600580546001600160a01b038381166001600160a01b0319831681179093556040519116919082907f8be0079c531659141344cd1fd0a4f28419497f9722a3daafe3b4186f6b6457e090600090a35050565b634e487b7160e01b600052604160045260246000fd5b600181811c9082168061011057607f821691505b60208210810361013057634e487b7160e01b600052602260045260246000fd5b50919050565b601f82111561018057806000526020600020601f840160051c8101602085101561015d5750805b601f840160051c820191505b8181101561017d5760008155600101610169565b50505b505050565b81516001600160401b0381111561019e5761019e6100e6565b6101b2816101ac84546100fc565b84610136565b6020601f8211600181146101e657600083156101ce5750848201515b600019600385901b1c1916600184901b17845561017d565b600084815260208120601f198516915b8281101561021657878501518255602094850194600190920191016101f6565b50848210156102345786840151600019600387901b60f8161c191681555b50505050600190811b01905550565b610dcf806102526000396000f3fe608060405234801561001057600080fd5b506004361061012c5760003560e01c8063715018a6116100ad578063a457c2d711610071578063a457c2d714610264578063a9059cbb14610277578063da0239a61461028a578063dd62ed3e14610292578063f2fde38b146102a557600080fd5b8063715018a61461021d57806379cc6790146102255780638da5cb5b1461023857806395d89b4114610253578063a2309ff81461025b57600080fd5b806332cb6b0c116100f457806332cb6b0c146101a657806339509351146101b957806340c10f19146101cc57806342966c68146101e157806370a08231146101f457600080fd5b806306fdde0314610131578063095ea7b31461014f57806318160ddd1461017257806323b872dd14610184578063313ce56714610197575b600080fd5b6101396102b8565b6040516101469190610be4565b60405180910390f35b61016261015d366004610c4e565b61034a565b6040519015158152602001610146565b6002545b604051908152602001610146565b610162610192366004610c78565b610364565b60405160128152602001610146565b6101766b09b18ab5df7180b6b800000081565b6101626101c7366004610c4e565b610388565b6101df6101da366004610c4e565b6103aa565b005b6101df6101ef366004610cb5565b610478565b610176610202366004610cce565b6001600160a01b031660009081526020819052604090205490565b6101df610485565b6101df610233366004610c4e565b610499565b6005546040516001600160a01b039091168152602001610146565b6101396104b2565b61017660065481565b610162610272366004610c4e565b6104c1565b610162610285366004610c4e565b61053c565b61017661054a565b6101766102a0366004610cf0565b61056b565b6101df6102b3366004610cce565b610596565b6060600380546102c790610d23565b80601f01602080910402602001604051908101604052809291908181526020018280546102f390610d23565b80156103405780601f1061031557610100808354040283529160200191610340565b820191906000526020600020905b81548152906001019060200180831161032357829003601f168201915b5050505050905090565b60003361035881858561060c565b60019150505b92915050565b600033610372858285610731565b61037d8585856107ab565b506001949350505050565b60003361035881858561039b838361056b565b6103a59190610d73565b61060c565b6103b261094f565b6b09b18ab5df7180b6b8000000816006546103cd9190610d73565b11156104155760405162461bcd60e51b815260206004820152601260248201527145786365656473206d617820737570706c7960701b60448201526064015b60405180910390fd5b61041f82826109a9565b80600660008282546104319190610d73565b90915550506040518181526001600160a01b038316907f3f2c9d57c068687834f0de942a9babb9e5acab57d516d3480a3c16ee165a42739060200160405180910390a25050565b6104823382610a68565b50565b61048d61094f565b6104976000610b92565b565b6104a4823383610731565b6104ae8282610a68565b5050565b6060600480546102c790610d23565b600033816104cf828661056b565b90508381101561052f5760405162461bcd60e51b815260206004820152602560248201527f45524332303a2064656372656173656420616c6c6f77616e63652062656c6f77604482015264207a65726f60d81b606482015260840161040c565b61037d828686840361060c565b6000336103588185856107ab565b60006006546b09b18ab5df7180b6b80000006105669190610d86565b905090565b6001600160a01b03918216600090815260016020908152604080832093909416825291909152205490565b61059e61094f565b6001600160a01b0381166106035760405162461bcd60e51b815260206004820152602660248201527f4f776e61626c653a206e6577206f776e657220697320746865207a65726f206160448201526564647265737360d01b606482015260840161040c565b61048281610b92565b6001600160a01b03831661066e5760405162461bcd60e51b8152602060048201526024808201527f45524332303a20617070726f76652066726f6d20746865207a65726f206164646044820152637265737360e01b606482015260840161040c565b6001600160a01b0382166106cf5760405162461bcd60e51b815260206004820152602260248201527f45524332303a20617070726f766520746f20746865207a65726f206164647265604482015261737360f01b606482015260840161040c565b6001600160a01b0383811660008181526001602090815260408083209487168084529482529182902085905590518481527f8c5be1e5ebec7d5bd14f71427d1e84f3dd0314c0f7b2291e5b200ac8c7c3b92591015b60405180910390a3505050565b600061073d848461056b565b905060001981146107a557818110156107985760405162461bcd60e51b815260206004820152601d60248201527f45524332303a20696e73756666696369656e7420616c6c6f77616e6365000000604482015260640161040c565b6107a5848484840361060c565b50505050565b6001600160a01b03831661080f5760405162461bcd60e51b815260206004820152602560248201527f45524332303a207472616e736665722066726f6d20746865207a65726f206164604482015264647265737360d81b606482015260840161040c565b6001600160a01b0382166108715760405162461bcd60e51b815260206004820152602360248201527f45524332303a207472616e7366657220746f20746865207a65726f206164647260448201526265737360e81b606482015260840161040c565b6001600160a01b038316600090815260208190526040902054818110156108e95760405162461bcd60e51b815260206004820152602660248201527f45524332303a207472616e7366657220616d6f756e7420657863656564732062604482015265616c616e636560d01b606482015260840161040c565b6001600160a01b03848116600081815260208181526040808320878703905593871680835291849020805487019055925185815290927fddf252ad1be2c89b69c2b068fc378daa952ba7f163c4a11628f55a4df523b3ef910160405180910390a36107a5565b6005546001600160a01b031633146104975760405162461bcd60e51b815260206004820181905260248201527f4f776e61626c653a2063616c6c6572206973206e6f7420746865206f776e6572604482015260640161040c565b6001600160a01b0382166109ff5760405162461bcd60e51b815260206004820152601f60248201527f45524332303a206d696e7420746f20746865207a65726f206164647265737300604482015260640161040c565b8060026000828254610a119190610d73565b90915550506001600160a01b038216600081815260208181526040808320805486019055518481527fddf252ad1be2c89b69c2b068fc378daa952ba7f163c4a11628f55a4df523b3ef910160405180910390a35050565b6001600160a01b038216610ac85760405162461bcd60e51b815260206004820152602160248201527f45524332303a206275726e2066726f6d20746865207a65726f206164647265736044820152607360f81b606482015260840161040c565b6001600160a01b03821660009081526020819052604090205481811015610b3c5760405162461bcd60e51b815260206004820152602260248201527f45524332303a206275726e20616d6f756e7420657863656564732062616c616e604482015261636560f01b606482015260840161040c565b6001600160a01b0383166000818152602081815260408083208686039055600280548790039055518581529192917fddf252ad1be2c89b69c2b068fc378daa952ba7f163c4a11628f55a4df523b3ef9101610724565b600580546001600160a01b038381166001600160a01b0319831681179093556040519116919082907f8be0079c531659141344cd1fd0a4f28419497f9722a3daafe3b4186f6b6457e090600090a35050565b602081526000825180602084015260005b81811015610c125760208186018101516040868401015201610bf5565b506000604082850101526040601f19601f83011684010191505092915050565b80356001600160a01b0381168114610c4957600080fd5b919050565b60008060408385031215610c6157600080fd5b610c6a83610c32565b946020939093013593505050565b600080600060608486031215610c8d57600080fd5b610c9684610c32565b9250610ca460208501610c32565b929592945050506040919091013590565b600060208284031215610cc757600080fd5b5035919050565b600060208284031215610ce057600080fd5b610ce982610c32565b9392505050565b60008060408385031215610d0357600080fd5b610d0c83610c32565b9150610d1a60208401610c32565b90509250929050565b600181811c90821680610d3757607f821691505b602082108103610d5757634e487b7160e01b600052602260045260246000fd5b50919050565b634e487b7160e01b600052601160045260246000fd5b8082018082111561035e5761035e610d5d565b8181038181111561035e5761035e610d5d56fea26469706673582212203e3432626bced1ad8b1512a64652298891b518777e0f03ff645d56bb2bc9aa0064736f6c634300081c00336ff3a4003b90be84595beb5f6acb9d54f88bd3e6dd4887ca67e53dc9645465ea",
  "linkReferences": {},
  "deployedLinkReferences": {}
}